{
  "_format": "hh-sol-artifact-1",
  "contractName": "Kolocash",
  "sourceName": "contracts/Kolocash.sol",
  "abi": [
    {
      "inputs": [],
      "stateMutability": "nonpayable",
      "type": "constructor"
    },
    {
      "inputs": [
        {
          "internalType": "address",
          "name": "authority",
          "type": "address"
        }
      ],
      "name": "AccessManagedInvalidAuthority",
      "type": "error"
    },
    {
      "inputs": [
        {
          "internalType": "address",
          "name": "caller",
          "type": "address"
        },
        {
          "internalType": "uint32",
          "name": "delay",
          "type": "uint32"
        }
      ],
      "name": "AccessManagedRequiredDelay",
      "type": "error"
    },
    {
      "inputs": [
        {
          "internalType": "address",
          "name": "caller",
          "type": "address"
        }
      ],
      "name": "AccessManagedUnauthorized",
      "type": "error"
    },
    {
      "inputs": [],
      "name": "ECDSAInvalidSignature",
      "type": "error"
    },
    {
      "inputs": [
        {
          "internalType": "uint256",
          "name": "length",
          "type": "uint256"
        }
      ],
      "name": "ECDSAInvalidSignatureLength",
      "type": "error"
    },
    {
      "inputs": [
        {
          "internalType": "bytes32",
          "name": "s",
          "type": "bytes32"
        }
      ],
      "name": "ECDSAInvalidSignatureS",
      "type": "error"
    },
    {
      "inputs": [
        {
          "internalType": "address",
          "name": "spender",
          "type": "address"
        },
        {
          "internalType": "uint256",
          "name": "allowance",
          "type": "uint256"
        },
        {
          "internalType": "uint256",
          "name": "needed",
          "type": "uint256"
        }
      ],
      "name": "ERC20InsufficientAllowance",
      "type": "error"
    },
    {
      "inputs": [
        {
          "internalType": "address",
          "name": "sender",
          "type": "address"
        },
        {
          "internalType": "uint256",
          "name": "balance",
          "type": "uint256"
        },
        {
          "internalType": "uint256",
          "name": "needed",
          "type": "uint256"
        }
      ],
      "name": "ERC20InsufficientBalance",
      "type": "error"
    },
    {
      "inputs": [
        {
          "internalType": "address",
          "name": "approver",
          "type": "address"
        }
      ],
      "name": "ERC20InvalidApprover",
      "type": "error"
    },
    {
      "inputs": [
        {
          "internalType": "address",
          "name": "receiver",
          "type": "address"
        }
      ],
      "name": "ERC20InvalidReceiver",
      "type": "error"
    },
    {
      "inputs": [
        {
          "internalType": "address",
          "name": "sender",
          "type": "address"
        }
      ],
      "name": "ERC20InvalidSender",
      "type": "error"
    },
    {
      "inputs": [
        {
          "internalType": "address",
          "name": "spender",
          "type": "address"
        }
      ],
      "name": "ERC20InvalidSpender",
      "type": "error"
    },
    {
      "inputs": [
        {
          "internalType": "uint256",
          "name": "deadline",
          "type": "uint256"
        }
      ],
      "name": "ERC2612ExpiredSignature",
      "type": "error"
    },
    {
      "inputs": [
        {
          "internalType": "address",
          "name": "signer",
          "type": "address"
        },
        {
          "internalType": "address",
          "name": "owner",
          "type": "address"
        }
      ],
      "name": "ERC2612InvalidSigner",
      "type": "error"
    },
    {
      "inputs": [
        {
          "internalType": "uint256",
          "name": "maxLoan",
          "type": "uint256"
        }
      ],
      "name": "ERC3156ExceededMaxLoan",
      "type": "error"
    },
    {
      "inputs": [
        {
          "internalType": "address",
          "name": "receiver",
          "type": "address"
        }
      ],
      "name": "ERC3156InvalidReceiver",
      "type": "error"
    },
    {
      "inputs": [
        {
          "internalType": "address",
          "name": "token",
          "type": "address"
        }
      ],
      "name": "ERC3156UnsupportedToken",
      "type": "error"
    },
    {
      "inputs": [],
      "name": "EnforcedPause",
      "type": "error"
    },
    {
      "inputs": [],
      "name": "ExpectedPause",
      "type": "error"
    },
    {
      "inputs": [
        {
          "internalType": "address",
          "name": "account",
          "type": "address"
        },
        {
          "internalType": "uint256",
          "name": "currentNonce",
          "type": "uint256"
        }
      ],
      "name": "InvalidAccountNonce",
      "type": "error"
    },
    {
      "inputs": [],
      "name": "InvalidInitialization",
      "type": "error"
    },
    {
      "inputs": [],
      "name": "NotInitializing",
      "type": "error"
    },
    {
      "anonymous": false,
      "inputs": [
        {
          "indexed": true,
          "internalType": "address",
          "name": "owner",
          "type": "address"
        },
        {
          "indexed": true,
          "internalType": "address",
          "name": "spender",
          "type": "address"
        },
        {
          "indexed": false,
          "internalType": "uint256",
          "name": "value",
          "type": "uint256"
        }
      ],
      "name": "Approval",
      "type": "event"
    },
    {
      "anonymous": false,
      "inputs": [
        {
          "indexed": false,
          "internalType": "address",
          "name": "authority",
          "type": "address"
        }
      ],
      "name": "AuthorityUpdated",
      "type": "event"
    },
    {
      "anonymous": false,
      "inputs": [
        {
          "indexed": true,
          "internalType": "address",
          "name": "newDAO",
          "type": "address"
        }
      ],
      "name": "DAOContractUpdated",
      "type": "event"
    },
    {
      "anonymous": false,
      "inputs": [],
      "name": "EIP712DomainChanged",
      "type": "event"
    },
    {
      "anonymous": false,
      "inputs": [
        {
          "indexed": false,
          "internalType": "uint64",
          "name": "version",
          "type": "uint64"
        }
      ],
      "name": "Initialized",
      "type": "event"
    },
    {
      "anonymous": false,
      "inputs": [
        {
          "indexed": false,
          "internalType": "address",
          "name": "account",
          "type": "address"
        }
      ],
      "name": "Paused",
      "type": "event"
    },
    {
      "anonymous": false,
      "inputs": [
        {
          "indexed": false,
          "internalType": "uint256",
          "name": "amount",
          "type": "uint256"
        },
        {
          "indexed": true,
          "internalType": "address",
          "name": "to",
          "type": "address"
        }
      ],
      "name": "TaxDistributed",
      "type": "event"
    },
    {
      "anonymous": false,
      "inputs": [
        {
          "indexed": false,
          "internalType": "uint256",
          "name": "amount",
          "type": "uint256"
        }
      ],
      "name": "TokensBurned",
      "type": "event"
    },
    {
      "anonymous": false,
      "inputs": [
        {
          "indexed": true,
          "internalType": "address",
          "name": "from",
          "type": "address"
        },
        {
          "indexed": true,
          "internalType": "address",
          "name": "to",
          "type": "address"
        },
        {
          "indexed": false,
          "internalType": "uint256",
          "name": "value",
          "type": "uint256"
        }
      ],
      "name": "Transfer",
      "type": "event"
    },
    {
      "anonymous": false,
      "inputs": [
        {
          "indexed": false,
          "internalType": "address",
          "name": "account",
          "type": "address"
        }
      ],
      "name": "Unpaused",
      "type": "event"
    },
    {
      "anonymous": false,
      "inputs": [
        {
          "indexed": true,
          "internalType": "address",
          "name": "treasury",
          "type": "address"
        },
        {
          "indexed": true,
          "internalType": "address",
          "name": "liquidity",
          "type": "address"
        },
        {
          "indexed": true,
          "internalType": "address",
          "name": "impact",
          "type": "address"
        }
      ],
      "name": "WalletsUpdated",
      "type": "event"
    },
    {
      "inputs": [],
      "name": "DOMAIN_SEPARATOR",
      "outputs": [
        {
          "internalType": "bytes32",
          "name": "",
          "type": "bytes32"
        }
      ],
      "stateMutability": "view",
      "type": "function"
    },
    {
      "inputs": [
        {
          "internalType": "address",
          "name": "owner",
          "type": "address"
        },
        {
          "internalType": "address",
          "name": "spender",
          "type": "address"
        }
      ],
      "name": "allowance",
      "outputs": [
        {
          "internalType": "uint256",
          "name": "",
          "type": "uint256"
        }
      ],
      "stateMutability": "view",
      "type": "function"
    },
    {
      "inputs": [
        {
          "internalType": "address",
          "name": "spender",
          "type": "address"
        },
        {
          "internalType": "uint256",
          "name": "value",
          "type": "uint256"
        }
      ],
      "name": "approve",
      "outputs": [
        {
          "internalType": "bool",
          "name": "",
          "type": "bool"
        }
      ],
      "stateMutability": "nonpayable",
      "type": "function"
    },
    {
      "inputs": [],
      "name": "authority",
      "outputs": [
        {
          "internalType": "address",
          "name": "",
          "type": "address"
        }
      ],
      "stateMutability": "view",
      "type": "function"
    },
    {
      "inputs": [
        {
          "internalType": "address",
          "name": "account",
          "type": "address"
        }
      ],
      "name": "balanceOf",
      "outputs": [
        {
          "internalType": "uint256",
          "name": "",
          "type": "uint256"
        }
      ],
      "stateMutability": "view",
      "type": "function"
    },
    {
      "inputs": [
        {
          "internalType": "uint256",
          "name": "value",
          "type": "uint256"
        }
      ],
      "name": "burn",
      "outputs": [],
      "stateMutability": "nonpayable",
      "type": "function"
    },
    {
      "inputs": [
        {
          "internalType": "address",
          "name": "account",
          "type": "address"
        },
        {
          "internalType": "uint256",
          "name": "value",
          "type": "uint256"
        }
      ],
      "name": "burnFrom",
      "outputs": [],
      "stateMutability": "nonpayable",
      "type": "function"
    },
    {
      "inputs": [],
      "name": "daoKoloContract",
      "outputs": [
        {
          "internalType": "address",
          "name": "",
          "type": "address"
        }
      ],
      "stateMutability": "view",
      "type": "function"
    },
    {
      "inputs": [],
      "name": "decimals",
      "outputs": [
        {
          "internalType": "uint8",
          "name": "",
          "type": "uint8"
        }
      ],
      "stateMutability": "view",
      "type": "function"
    },
    {
      "inputs": [],
      "name": "eip712Domain",
      "outputs": [
        {
          "internalType": "bytes1",
          "name": "fields",
          "type": "bytes1"
        },
        {
          "internalType": "string",
          "name": "name",
          "type": "string"
        },
        {
          "internalType": "string",
          "name": "version",
          "type": "string"
        },
        {
          "internalType": "uint256",
          "name": "chainId",
          "type": "uint256"
        },
        {
          "internalType": "address",
          "name": "verifyingContract",
          "type": "address"
        },
        {
          "internalType": "bytes32",
          "name": "salt",
          "type": "bytes32"
        },
        {
          "internalType": "uint256[]",
          "name": "extensions",
          "type": "uint256[]"
        }
      ],
      "stateMutability": "view",
      "type": "function"
    },
    {
      "inputs": [
        {
          "internalType": "address",
          "name": "token",
          "type": "address"
        },
        {
          "internalType": "uint256",
          "name": "value",
          "type": "uint256"
        }
      ],
      "name": "flashFee",
      "outputs": [
        {
          "internalType": "uint256",
          "name": "",
          "type": "uint256"
        }
      ],
      "stateMutability": "view",
      "type": "function"
    },
    {
      "inputs": [
        {
          "internalType": "contract IERC3156FlashBorrower",
          "name": "receiver",
          "type": "address"
        },
        {
          "internalType": "address",
          "name": "token",
          "type": "address"
        },
        {
          "internalType": "uint256",
          "name": "value",
          "type": "uint256"
        },
        {
          "internalType": "bytes",
          "name": "data",
          "type": "bytes"
        }
      ],
      "name": "flashLoan",
      "outputs": [
        {
          "internalType": "bool",
          "name": "",
          "type": "bool"
        }
      ],
      "stateMutability": "nonpayable",
      "type": "function"
    },
    {
      "inputs": [],
      "name": "impactWallet",
      "outputs": [
        {
          "internalType": "address",
          "name": "",
          "type": "address"
        }
      ],
      "stateMutability": "view",
      "type": "function"
    },
    {
      "inputs": [],
      "name": "initialSupply",
      "outputs": [
        {
          "internalType": "uint256",
          "name": "",
          "type": "uint256"
        }
      ],
      "stateMutability": "view",
      "type": "function"
    },
    {
      "inputs": [
        {
          "internalType": "address",
          "name": "_treasury",
          "type": "address"
        },
        {
          "internalType": "address",
          "name": "_liquidity",
          "type": "address"
        },
        {
          "internalType": "address",
          "name": "_impact",
          "type": "address"
        },
        {
          "internalType": "address",
          "name": "_daoKolo",
          "type": "address"
        }
      ],
      "name": "initialize",
      "outputs": [],
      "stateMutability": "nonpayable",
      "type": "function"
    },
    {
      "inputs": [],
      "name": "isConsumingScheduledOp",
      "outputs": [
        {
          "internalType": "bytes4",
          "name": "",
          "type": "bytes4"
        }
      ],
      "stateMutability": "view",
      "type": "function"
    },
    {
      "inputs": [],
      "name": "liquidityWallet",
      "outputs": [
        {
          "internalType": "address",
          "name": "",
          "type": "address"
        }
      ],
      "stateMutability": "view",
      "type": "function"
    },
    {
      "inputs": [
        {
          "internalType": "address",
          "name": "token",
          "type": "address"
        }
      ],
      "name": "maxFlashLoan",
      "outputs": [
        {
          "internalType": "uint256",
          "name": "",
          "type": "uint256"
        }
      ],
      "stateMutability": "view",
      "type": "function"
    },
    {
      "inputs": [
        {
          "internalType": "address",
          "name": "to",
          "type": "address"
        },
        {
          "internalType": "uint256",
          "name": "amount",
          "type": "uint256"
        }
      ],
      "name": "mint",
      "outputs": [],
      "stateMutability": "nonpayable",
      "type": "function"
    },
    {
      "inputs": [],
      "name": "name",
      "outputs": [
        {
          "internalType": "string",
          "name": "",
          "type": "string"
        }
      ],
      "stateMutability": "view",
      "type": "function"
    },
    {
      "inputs": [
        {
          "internalType": "address",
          "name": "owner",
          "type": "address"
        }
      ],
      "name": "nonces",
      "outputs": [
        {
          "internalType": "uint256",
          "name": "",
          "type": "uint256"
        }
      ],
      "stateMutability": "view",
      "type": "function"
    },
    {
      "inputs": [],
      "name": "pause",
      "outputs": [],
      "stateMutability": "nonpayable",
      "type": "function"
    },
    {
      "inputs": [],
      "name": "paused",
      "outputs": [
        {
          "internalType": "bool",
          "name": "",
          "type": "bool"
        }
      ],
      "stateMutability": "view",
      "type": "function"
    },
    {
      "inputs": [
        {
          "internalType": "address",
          "name": "owner",
          "type": "address"
        },
        {
          "internalType": "address",
          "name": "spender",
          "type": "address"
        },
        {
          "internalType": "uint256",
          "name": "value",
          "type": "uint256"
        },
        {
          "internalType": "uint256",
          "name": "deadline",
          "type": "uint256"
        },
        {
          "internalType": "uint8",
          "name": "v",
          "type": "uint8"
        },
        {
          "internalType": "bytes32",
          "name": "r",
          "type": "bytes32"
        },
        {
          "internalType": "bytes32",
          "name": "s",
          "type": "bytes32"
        }
      ],
      "name": "permit",
      "outputs": [],
      "stateMutability": "nonpayable",
      "type": "function"
    },
    {
      "inputs": [
        {
          "internalType": "address",
          "name": "newAuthority",
          "type": "address"
        }
      ],
      "name": "setAuthority",
      "outputs": [],
      "stateMutability": "nonpayable",
      "type": "function"
    },
    {
      "inputs": [],
      "name": "symbol",
      "outputs": [
        {
          "internalType": "string",
          "name": "",
          "type": "string"
        }
      ],
      "stateMutability": "view",
      "type": "function"
    },
    {
      "inputs": [],
      "name": "taxRate",
      "outputs": [
        {
          "internalType": "uint256",
          "name": "",
          "type": "uint256"
        }
      ],
      "stateMutability": "view",
      "type": "function"
    },
    {
      "inputs": [],
      "name": "totalSupply",
      "outputs": [
        {
          "internalType": "uint256",
          "name": "",
          "type": "uint256"
        }
      ],
      "stateMutability": "view",
      "type": "function"
    },
    {
      "inputs": [
        {
          "internalType": "address",
          "name": "recipient",
          "type": "address"
        },
        {
          "internalType": "uint256",
          "name": "amount",
          "type": "uint256"
        }
      ],
      "name": "transfer",
      "outputs": [
        {
          "internalType": "bool",
          "name": "",
          "type": "bool"
        }
      ],
      "stateMutability": "nonpayable",
      "type": "function"
    },
    {
      "inputs": [
        {
          "internalType": "address",
          "name": "sender",
          "type": "address"
        },
        {
          "internalType": "address",
          "name": "recipient",
          "type": "address"
        },
        {
          "internalType": "uint256",
          "name": "amount",
          "type": "uint256"
        }
      ],
      "name": "transferFrom",
      "outputs": [
        {
          "internalType": "bool",
          "name": "",
          "type": "bool"
        }
      ],
      "stateMutability": "nonpayable",
      "type": "function"
    },
    {
      "inputs": [],
      "name": "treasuryWallet",
      "outputs": [
        {
          "internalType": "address",
          "name": "",
          "type": "address"
        }
      ],
      "stateMutability": "view",
      "type": "function"
    },
    {
      "inputs": [],
      "name": "unpause",
      "outputs": [],
      "stateMutability": "nonpayable",
      "type": "function"
    },
    {
      "inputs": [
        {
          "internalType": "address",
          "name": "_newDAO",
          "type": "address"
        }
      ],
      "name": "updateDAOContract",
      "outputs": [],
      "stateMutability": "nonpayable",
      "type": "function"
    },
    {
      "inputs": [
        {
          "internalType": "address",
          "name": "_treasury",
          "type": "address"
        },
        {
          "internalType": "address",
          "name": "_liquidity",
          "type": "address"
        },
        {
          "internalType": "address",
          "name": "_impact",
          "type": "address"
        }
      ],
      "name": "updateWallets",
      "outputs": [],
      "stateMutability": "nonpayable",
      "type": "function"
    }
  ],
  "bytecode": "0x608060405234801561001057600080fd5b5061001f61002460201b60201c565b61018e565b600061003461012860201b60201c565b90508060000160089054906101000a900460ff161561007f576040517ff92ee8a900000000000000000000000000000000000000000000000000000000815260040160405180910390fd5b67ffffffffffffffff80168160000160009054906101000a900467ffffffffffffffff1667ffffffffffffffff16146101255767ffffffffffffffff8160000160006101000a81548167ffffffffffffffff021916908367ffffffffffffffff1602179055507fc7f505b2f371ae2175ee4913f4499e1f2633a7b5936321eed1cdaeb6115181d267ffffffffffffffff60405161011c9190610173565b60405180910390a15b50565b60007ff0c57e16840df040f15088dc2f81fe391c3923bec73e23a9662efc9c229c6a00905090565b600067ffffffffffffffff82169050919050565b61016d81610150565b82525050565b60006020820190506101886000830184610164565b92915050565b61437c8061019d6000396000f3fe608060405234801561001057600080fd5b50600436106102065760003560e01c8063771a3a1d1161011a57806395d89b41116100ad578063d46980161161007c578063d4698016146105c1578063d505accf146105df578063d9d98ce4146105fb578063dd62ed3e1461062b578063f8c8765e1461065b57610206565b806395d89b4114610537578063a9059cbb14610555578063a96b6e1514610585578063bf7e214f146105a357610206565b80638456cb59116100e95780638456cb59146104cf57806384b0196e146104d95780638d979796146104fd5780638fb360371461051957610206565b8063771a3a1d1461044957806379cc6790146104675780637a9e5e4b146104835780637ecebe001461049f57610206565b80633f4ba83a1161019d5780635c975abb1161016c5780635c975abb1461037d5780635cffe9de1461039b578063613255ab146103cb57806370a08231146103fb578063722989d01461042b57610206565b80633f4ba83a1461031d57806340c10f191461032757806342966c68146103435780634626402b1461035f57610206565b806323b872dd116101d957806323b872dd14610293578063313ce567146102c35780633644e515146102e1578063378dc3dc146102ff57610206565b806306fdde031461020b578063095ea7b314610229578063147c9f6d1461025957806318160ddd14610275575b600080fd5b610213610677565b6040516102209190613094565b60405180910390f35b610243600480360381019061023e9190613154565b610718565b60405161025091906131af565b60405180910390f35b610273600480360381019061026e91906131ca565b61073b565b005b61027d61096e565b60405161028a919061322c565b60405180910390f35b6102ad60048036038101906102a89190613247565b610986565b6040516102ba91906131af565b60405180910390f35b6102cb6109b0565b6040516102d891906132b6565b60405180910390f35b6102e96109b9565b6040516102f691906132ea565b60405180910390f35b6103076109c8565b604051610314919061322c565b60405180910390f35b6103256109ce565b005b610341600480360381019061033c9190613154565b6109f0565b005b61035d60048036038101906103589190613305565b610a16565b005b610367610a2a565b6040516103749190613341565b60405180910390f35b610385610a50565b60405161039291906131af565b60405180910390f35b6103b560048036038101906103b091906133ff565b610a75565b6040516103c291906131af565b60405180910390f35b6103e560048036038101906103e09190613487565b610c72565b6040516103f2919061322c565b60405180910390f35b61041560048036038101906104109190613487565b610ce9565b604051610422919061322c565b60405180910390f35b610433610d40565b6040516104409190613341565b60405180910390f35b610451610d66565b60405161045e919061322c565b60405180910390f35b610481600480360381019061047c9190613154565b610d6c565b005b61049d60048036038101906104989190613487565b610d8c565b005b6104b960048036038101906104b49190613487565b610e78565b6040516104c6919061322c565b60405180910390f35b6104d7610e8a565b005b6104e1610eac565b6040516104f497969594939291906135ad565b60405180910390f35b61051760048036038101906105129190613487565b610fbe565b005b6105216110cc565b60405161052e919061366c565b60405180910390f35b61053f611108565b60405161054c9190613094565b60405180910390f35b61056f600480360381019061056a9190613154565b6111a9565b60405161057c91906131af565b60405180910390f35b61058d6111c7565b60405161059a9190613341565b60405180910390f35b6105ab6111ed565b6040516105b89190613341565b60405180910390f35b6105c9611225565b6040516105d69190613341565b60405180910390f35b6105f960048036038101906105f491906136df565b61124b565b005b61061560048036038101906106109190613154565b611393565b604051610622919061322c565b60405180910390f35b61064560048036038101906106409190613781565b611417565b604051610652919061322c565b60405180910390f35b610675600480360381019061067091906137c1565b6114ac565b005b60606000610683611985565b905080600301805461069490613857565b80601f01602080910402602001604051908101604052809291908181526020018280546106c090613857565b801561070d5780601f106106e25761010080835404028352916020019161070d565b820191906000526020600020905b8154815290600101906020018083116106f057829003601f168201915b505050505091505090565b6000806107236119ad565b90506107308185856119b5565b600191505092915050565b6107536107466119ad565b61074e6119c7565b6119d4565b600073ffffffffffffffffffffffffffffffffffffffff168373ffffffffffffffffffffffffffffffffffffffff16141580156107bd5750600073ffffffffffffffffffffffffffffffffffffffff168273ffffffffffffffffffffffffffffffffffffffff1614155b80156107f65750600073ffffffffffffffffffffffffffffffffffffffff168173ffffffffffffffffffffffffffffffffffffffff1614155b610835576040517f08c379a000000000000000000000000000000000000000000000000000000000815260040161082c906138d4565b60405180910390fd5b82600260006101000a81548173ffffffffffffffffffffffffffffffffffffffff021916908373ffffffffffffffffffffffffffffffffffffffff16021790555081600360006101000a81548173ffffffffffffffffffffffffffffffffffffffff021916908373ffffffffffffffffffffffffffffffffffffffff16021790555080600460006101000a81548173ffffffffffffffffffffffffffffffffffffffff021916908373ffffffffffffffffffffffffffffffffffffffff1602179055508073ffffffffffffffffffffffffffffffffffffffff168273ffffffffffffffffffffffffffffffffffffffff168473ffffffffffffffffffffffffffffffffffffffff167f2d4c6aa48812a0ea09474a961613c1a3ae652d39a1580cb1ac46ff277e6d385d60405160405180910390a4505050565b600080610979611985565b9050806002015491505090565b600061099a846109946119ad565b84611b27565b6109a5848484611bbc565b600190509392505050565b60006012905090565b60006109c3611db5565b905090565b60005481565b6109e66109d96119ad565b6109e16119c7565b6119d4565b6109ee611dc4565b565b610a086109fb6119ad565b610a036119c7565b6119d4565b610a128282611e36565b5050565b610a27610a216119ad565b82611eb8565b50565b600260009054906101000a900473ffffffffffffffffffffffffffffffffffffffff1681565b600080610a5b611f3a565b90508060000160009054906101000a900460ff1691505090565b600080610a8186610c72565b905080851115610ac857806040517ffd9a7609000000000000000000000000000000000000000000000000000000008152600401610abf919061322c565b60405180910390fd5b6000610ad48787611393565b9050610ae08887611e36565b7f439148f0bbc682ca079e46d6e2c2f0c1e3b820f1a291b069d8882abf8cf18dd98873ffffffffffffffffffffffffffffffffffffffff166323e30c8b610b256119ad565b8a8a868b8b6040518763ffffffff1660e01b8152600401610b4b96959493929190613941565b6020604051808303816000875af1158015610b6a573d6000803e3d6000fd5b505050506040513d601f19601f82011682018060405250810190610b8e91906139b2565b14610bd057876040517f678c5b00000000000000000000000000000000000000000000000000000000008152600401610bc79190613341565b60405180910390fd5b6000610bda611f62565b9050610bf28930848a610bed9190613a0e565b611b27565b6000821480610c2d5750600073ffffffffffffffffffffffffffffffffffffffff168173ffffffffffffffffffffffffffffffffffffffff16145b15610c4c57610c47898389610c429190613a0e565b611eb8565b610c62565b610c568988611eb8565b610c61898284611f67565b5b6001935050505095945050505050565b60003073ffffffffffffffffffffffffffffffffffffffff168273ffffffffffffffffffffffffffffffffffffffff1614610cae576000610ce2565b610cb661096e565b7fffffffffffffffffffffffffffffffffffffffffffffffffffffffffffffffff610ce19190613a42565b5b9050919050565b600080610cf4611985565b90508060000160008473ffffffffffffffffffffffffffffffffffffffff1673ffffffffffffffffffffffffffffffffffffffff16815260200190815260200160002054915050919050565b600460009054906101000a900473ffffffffffffffffffffffffffffffffffffffff1681565b60015481565b610d7e82610d786119ad565b83611b27565b610d888282611eb8565b5050565b6000610d966119ad565b9050610da06111ed565b73ffffffffffffffffffffffffffffffffffffffff168173ffffffffffffffffffffffffffffffffffffffff1614610e0f57806040517f068ca9d8000000000000000000000000000000000000000000000000000000008152600401610e069190613341565b60405180910390fd5b60008273ffffffffffffffffffffffffffffffffffffffff163b03610e6b57816040517fc2f31e5e000000000000000000000000000000000000000000000000000000008152600401610e629190613341565b60405180910390fd5b610e748261205b565b5050565b6000610e83826120e5565b9050919050565b610ea2610e956119ad565b610e9d6119c7565b6119d4565b610eaa61213c565b565b6000606080600080600060606000610ec26121ae565b90506000801b8160000154148015610ee057506000801b8160010154145b610f1f576040517f08c379a0000000000000000000000000000000000000000000000000000000008152600401610f1690613ac2565b60405180910390fd5b610f276121d6565b610f2f612277565b46306000801b600067ffffffffffffffff811115610f5057610f4f613ae2565b5b604051908082528060200260200182016040528015610f7e5781602001602082028036833780820191505090505b507f0f0000000000000000000000000000000000000000000000000000000000000095949392919097509750975097509750975097505090919293949596565b610fd6610fc96119ad565b610fd16119c7565b6119d4565b600073ffffffffffffffffffffffffffffffffffffffff168173ffffffffffffffffffffffffffffffffffffffff1603611045576040517f08c379a000000000000000000000000000000000000000000000000000000000815260040161103c90613b5d565b60405180910390fd5b80600560006101000a81548173ffffffffffffffffffffffffffffffffffffffff021916908373ffffffffffffffffffffffffffffffffffffffff1602179055508073ffffffffffffffffffffffffffffffffffffffff167f27e5639c6e029d84a7d7b95407cb7ef188dde13b0d088444ab6a53560e726eec60405160405180910390a250565b6000806110d7612318565b90508060000160149054906101000a900460ff166110f957600060e01b611102565b638fb3603760e01b5b91505090565b60606000611114611985565b905080600401805461112590613857565b80601f016020809104026020016040519081016040528092919081815260200182805461115190613857565b801561119e5780601f106111735761010080835404028352916020019161119e565b820191906000526020600020905b81548152906001019060200180831161118157829003601f168201915b505050505091505090565b60006111bd6111b66119ad565b8484611bbc565b6001905092915050565b600560009054906101000a900473ffffffffffffffffffffffffffffffffffffffff1681565b6000806111f8612318565b90508060000160009054906101000a900473ffffffffffffffffffffffffffffffffffffffff1691505090565b600360009054906101000a900473ffffffffffffffffffffffffffffffffffffffff1681565b8342111561129057836040517f62791302000000000000000000000000000000000000000000000000000000008152600401611287919061322c565b60405180910390fd5b60007f6e71edae12b1b97f4d1f60370fef10105fa2faae0126114a169c64845d6126c98888886112bf8c612340565b896040516020016112d596959493929190613b7d565b60405160208183030381529060405280519060200120905060006112f8826123a5565b90506000611308828787876123bf565b90508973ffffffffffffffffffffffffffffffffffffffff168173ffffffffffffffffffffffffffffffffffffffff161461137c57808a6040517f4b800e46000000000000000000000000000000000000000000000000000000008152600401611373929190613bde565b60405180910390fd5b6113878a8a8a6119b5565b50505050505050505050565b60003073ffffffffffffffffffffffffffffffffffffffff168373ffffffffffffffffffffffffffffffffffffffff161461140557826040517fb5a7db920000000000000000000000000000000000000000000000000000000081526004016113fc9190613341565b60405180910390fd5b61140f83836123ef565b905092915050565b600080611422611985565b90508060010160008573ffffffffffffffffffffffffffffffffffffffff1673ffffffffffffffffffffffffffffffffffffffff16815260200190815260200160002060008473ffffffffffffffffffffffffffffffffffffffff1673ffffffffffffffffffffffffffffffffffffffff1681526020019081526020016000205491505092915050565b60006114b66123f7565b905060008160000160089054906101000a900460ff1615905060008260000160009054906101000a900467ffffffffffffffff1690506000808267ffffffffffffffff161480156115045750825b9050600060018367ffffffffffffffff16148015611539575060003073ffffffffffffffffffffffffffffffffffffffff163b145b905081158015611547575080155b1561157e576040517ff92ee8a900000000000000000000000000000000000000000000000000000000815260040160405180910390fd5b60018560000160006101000a81548167ffffffffffffffff021916908367ffffffffffffffff16021790555083156115ce5760018560000160086101000a81548160ff0219169083151502179055505b6116426040518060400160405280600881526020017f4b6f6c6f636173680000000000000000000000000000000000000000000000008152506040518060400160405280600481526020017f4b4f4c4f0000000000000000000000000000000000000000000000000000000081525061241f565b61164a612435565b61165261243f565b61165b33612451565b6116996040518060400160405280600881526020017f4b6f6c6f63617368000000000000000000000000000000000000000000000000815250612465565b6116a16124af565b600073ffffffffffffffffffffffffffffffffffffffff168973ffffffffffffffffffffffffffffffffffffffff161415801561170b5750600073ffffffffffffffffffffffffffffffffffffffff168873ffffffffffffffffffffffffffffffffffffffff1614155b80156117445750600073ffffffffffffffffffffffffffffffffffffffff168773ffffffffffffffffffffffffffffffffffffffff1614155b611783576040517f08c379a000000000000000000000000000000000000000000000000000000000815260040161177a90613c53565b60405180910390fd5b600073ffffffffffffffffffffffffffffffffffffffff168673ffffffffffffffffffffffffffffffffffffffff16036117f2576040517f08c379a00000000000000000000000000000000000000000000000000000000081526004016117e990613b5d565b60405180910390fd5b88600260006101000a81548173ffffffffffffffffffffffffffffffffffffffff021916908373ffffffffffffffffffffffffffffffffffffffff16021790555087600360006101000a81548173ffffffffffffffffffffffffffffffffffffffff021916908373ffffffffffffffffffffffffffffffffffffffff16021790555086600460006101000a81548173ffffffffffffffffffffffffffffffffffffffff021916908373ffffffffffffffffffffffffffffffffffffffff16021790555085600560006101000a81548173ffffffffffffffffffffffffffffffffffffffff021916908373ffffffffffffffffffffffffffffffffffffffff16021790555060046001819055506c01431e0fae6d7217caa000000060008190555061191e33600054611e36565b831561197a5760008560000160086101000a81548160ff0219169083151502179055507fc7f505b2f371ae2175ee4913f4499e1f2633a7b5936321eed1cdaeb6115181d260016040516119719190613ccc565b60405180910390a15b505050505050505050565b60007f52c63247e1f47db19d5ce0460030c497f067ca4cebf71ba98eeadabe20bace00905090565b600033905090565b6119c283838360016124b9565b505050565b3660008036915091509091565b60006119de612318565b9050600080611a146119ee6111ed565b87308888600090600492611a0493929190613cf1565b90611a0f9190613d44565b61269f565b9150915081611b1f5760008163ffffffff161115611ae15760018360000160146101000a81548160ff021916908315150217905550611a516111ed565b73ffffffffffffffffffffffffffffffffffffffff166394c7d7ee8787876040518463ffffffff1660e01b8152600401611a8d93929190613da3565b600060405180830381600087803b158015611aa757600080fd5b505af1158015611abb573d6000803e3d6000fd5b5050505060008360000160146101000a81548160ff021916908315150217905550611b1e565b856040517f068ca9d8000000000000000000000000000000000000000000000000000000008152600401611b159190613341565b60405180910390fd5b5b505050505050565b6000611b338484611417565b90507fffffffffffffffffffffffffffffffffffffffffffffffffffffffffffffffff811015611bb65781811015611ba6578281836040517ffb8f41b2000000000000000000000000000000000000000000000000000000008152600401611b9d93929190613dd5565b60405180910390fd5b611bb5848484840360006124b9565b5b50505050565b611bc46127c5565b6000606460015483611bd69190613e0c565b611be09190613e7d565b90506000600482611bf19190613e7d565b90506000600483611c029190613e7d565b90506000600484611c139190613e7d565b905060008486611c239190613a42565b9050611c2f8885611eb8565b611c5c88600360009054906101000a900473ffffffffffffffffffffffffffffffffffffffff1685611f67565b611c8988600460009054906101000a900473ffffffffffffffffffffffffffffffffffffffff1684611f67565b611c94888883611f67565b7f6ef4855b666dcc7884561072e4358b28dfe01feb1b7f4dcebc00e62d50394ac784604051611cc3919061322c565b60405180910390a1600360009054906101000a900473ffffffffffffffffffffffffffffffffffffffff1673ffffffffffffffffffffffffffffffffffffffff167f96eb472e1c5e264d17fc2769297554610f70acd24c881629f7f76e5526a40dbe84604051611d33919061322c565b60405180910390a2600460009054906101000a900473ffffffffffffffffffffffffffffffffffffffff1673ffffffffffffffffffffffffffffffffffffffff167f96eb472e1c5e264d17fc2769297554610f70acd24c881629f7f76e5526a40dbe83604051611da3919061322c565b60405180910390a25050505050505050565b6000611dbf612806565b905090565b611dcc61286a565b6000611dd6611f3a565b905060008160000160006101000a81548160ff0219169083151502179055507f5db9ee0a495bf2e6ff9c91a7834c1ba4fdd244a5e8aa4e537bd38aeae4b073aa611e1e6119ad565b604051611e2b9190613341565b60405180910390a150565b600073ffffffffffffffffffffffffffffffffffffffff168273ffffffffffffffffffffffffffffffffffffffff1603611ea85760006040517fec442f05000000000000000000000000000000000000000000000000000000008152600401611e9f9190613341565b60405180910390fd5b611eb4600083836128aa565b5050565b600073ffffffffffffffffffffffffffffffffffffffff168273ffffffffffffffffffffffffffffffffffffffff1603611f2a5760006040517f96c6fd1e000000000000000000000000000000000000000000000000000000008152600401611f219190613341565b60405180910390fd5b611f36826000836128aa565b5050565b60007fcd5ed15c6e187e77e9aee88184c21f4f2182ab5827cb3b7e07fbedcd63f03300905090565b600090565b600073ffffffffffffffffffffffffffffffffffffffff168373ffffffffffffffffffffffffffffffffffffffff1603611fd95760006040517f96c6fd1e000000000000000000000000000000000000000000000000000000008152600401611fd09190613341565b60405180910390fd5b600073ffffffffffffffffffffffffffffffffffffffff168273ffffffffffffffffffffffffffffffffffffffff160361204b5760006040517fec442f050000000000000000000000000000000000000000000000000000000081526004016120429190613341565b60405180910390fd5b6120568383836128aa565b505050565b6000612065612318565b9050818160000160006101000a81548173ffffffffffffffffffffffffffffffffffffffff021916908373ffffffffffffffffffffffffffffffffffffffff1602179055507f2f658b440c35314f52658ea8a740e05b284cdc84dc9ae01e891f21b8933e7cad826040516120d99190613341565b60405180910390a15050565b6000806120f06128ba565b90508060000160008473ffffffffffffffffffffffffffffffffffffffff1673ffffffffffffffffffffffffffffffffffffffff16815260200190815260200160002054915050919050565b6121446127c5565b600061214e611f3a565b905060018160000160006101000a81548160ff0219169083151502179055507f62e78cea01bee320cd4e420270b5ea74000d11b0c9f74754ebdbfc544b05a2586121966119ad565b6040516121a39190613341565b60405180910390a150565b60007fa16a46d94261c7517cc8ff89f61c0ce93598e3c849801011dee649a6a557d100905090565b606060006121e26121ae565b90508060020180546121f390613857565b80601f016020809104026020016040519081016040528092919081815260200182805461221f90613857565b801561226c5780601f106122415761010080835404028352916020019161226c565b820191906000526020600020905b81548152906001019060200180831161224f57829003601f168201915b505050505091505090565b606060006122836121ae565b905080600301805461229490613857565b80601f01602080910402602001604051908101604052809291908181526020018280546122c090613857565b801561230d5780601f106122e25761010080835404028352916020019161230d565b820191906000526020600020905b8154815290600101906020018083116122f057829003601f168201915b505050505091505090565b60007ff3177357ab46d8af007ab3fdb9af81da189e1068fefdc0073dca88a2cab40a00905090565b60008061234b6128ba565b90508060000160008473ffffffffffffffffffffffffffffffffffffffff1673ffffffffffffffffffffffffffffffffffffffff168152602001908152602001600020600081548092919060010191905055915050919050565b60006123b86123b2611db5565b836128e2565b9050919050565b6000806000806123d188888888612923565b9250925092506123e18282612a17565b829350505050949350505050565b600092915050565b60007ff0c57e16840df040f15088dc2f81fe391c3923bec73e23a9662efc9c229c6a00905090565b612427612b7b565b6124318282612bbb565b5050565b61243d612b7b565b565b612447612b7b565b61244f612bf8565b565b612459612b7b565b61246281612c2c565b50565b61246d612b7b565b6124ac816040518060400160405280600181526020017f3100000000000000000000000000000000000000000000000000000000000000815250612c40565b50565b6124b7612b7b565b565b60006124c3611985565b9050600073ffffffffffffffffffffffffffffffffffffffff168573ffffffffffffffffffffffffffffffffffffffff16036125375760006040517fe602df0500000000000000000000000000000000000000000000000000000000815260040161252e9190613341565b60405180910390fd5b600073ffffffffffffffffffffffffffffffffffffffff168473ffffffffffffffffffffffffffffffffffffffff16036125a95760006040517f94280d620000000000000000000000000000000000000000000000000000000081526004016125a09190613341565b60405180910390fd5b828160010160008773ffffffffffffffffffffffffffffffffffffffff1673ffffffffffffffffffffffffffffffffffffffff16815260200190815260200160002060008673ffffffffffffffffffffffffffffffffffffffff1673ffffffffffffffffffffffffffffffffffffffff168152602001908152602001600020819055508115612698578373ffffffffffffffffffffffffffffffffffffffff168573ffffffffffffffffffffffffffffffffffffffff167f8c5be1e5ebec7d5bd14f71427d1e84f3dd0314c0f7b2291e5b200ac8c7c3b9258560405161268f919061322c565b60405180910390a35b5050505050565b6000806000808773ffffffffffffffffffffffffffffffffffffffff168787876040516024016126d193929190613eae565b60405160208183030381529060405263b700961360e01b6020820180517bffffffffffffffffffffffffffffffffffffffffffffffffffffffff83818316178352505050506040516127239190613f2c565b600060405180830381855afa9150503d806000811461275e576040519150601f19603f3d011682016040523d82523d6000602084013e612763565b606091505b509150915081156127ba576040815110612798578080602001905181019061278b9190613fab565b80945081955050506127b9565b60208151106127b857808060200190518101906127b59190613feb565b93505b5b5b505094509492505050565b6127cd610a50565b15612804576040517fd93c066500000000000000000000000000000000000000000000000000000000815260040160405180910390fd5b565b60007f8b73c3c69bb8fe3d512ecc4cf759cc79239f7b179b0ffacaa9a75d522b39400f612831612c95565b612839612d11565b463060405160200161284f959493929190614018565b60405160208183030381529060405280519060200120905090565b612872610a50565b6128a8576040517f8dfc202b00000000000000000000000000000000000000000000000000000000815260040160405180910390fd5b565b6128b5838383612d8d565b505050565b60007f5ab42ced628888259c08ac98db1eb0cf702fc1501344311d8b100cd1bfe4bb00905090565b60006040517f190100000000000000000000000000000000000000000000000000000000000081528360028201528260228201526042812091505092915050565b60008060007f7fffffffffffffffffffffffffffffff5d576e7357a4501ddfe92f46681b20a08460001c1115612963576000600385925092509250612a0d565b600060018888888860405160008152602001604052604051612988949392919061406b565b6020604051602081039080840390855afa1580156129aa573d6000803e3d6000fd5b505050602060405103519050600073ffffffffffffffffffffffffffffffffffffffff168173ffffffffffffffffffffffffffffffffffffffff16036129fe57600060016000801b93509350935050612a0d565b8060008060001b935093509350505b9450945094915050565b60006003811115612a2b57612a2a6140b0565b5b826003811115612a3e57612a3d6140b0565b5b0315612b775760016003811115612a5857612a576140b0565b5b826003811115612a6b57612a6a6140b0565b5b03612aa2576040517ff645eedf00000000000000000000000000000000000000000000000000000000815260040160405180910390fd5b60026003811115612ab657612ab56140b0565b5b826003811115612ac957612ac86140b0565b5b03612b0e578060001c6040517ffce698f7000000000000000000000000000000000000000000000000000000008152600401612b05919061322c565b60405180910390fd5b600380811115612b2157612b206140b0565b5b826003811115612b3457612b336140b0565b5b03612b7657806040517fd78bce0c000000000000000000000000000000000000000000000000000000008152600401612b6d91906132ea565b60405180910390fd5b5b5050565b612b83612da5565b612bb9576040517fd7e6bcf800000000000000000000000000000000000000000000000000000000815260040160405180910390fd5b565b612bc3612b7b565b6000612bcd611985565b905082816003019081612be09190614274565b5081816004019081612bf29190614274565b50505050565b612c00612b7b565b6000612c0a611f3a565b905060008160000160006101000a81548160ff02191690831515021790555050565b612c34612b7b565b612c3d8161205b565b50565b612c48612b7b565b6000612c526121ae565b905082816002019081612c659190614274565b5081816003019081612c779190614274565b506000801b81600001819055506000801b8160010181905550505050565b600080612ca06121ae565b90506000612cac6121d6565b9050600081511115612cc957808051906020012092505050612d0e565b6000826000015490506000801b8114612ce757809350505050612d0e565b7fc5d2460186f7233c927e7db2dcc703c0e500b653ca82273b7bfad8045d85a47093505050505b90565b600080612d1c6121ae565b90506000612d28612277565b9050600081511115612d4557808051906020012092505050612d8a565b6000826001015490506000801b8114612d6357809350505050612d8a565b7fc5d2460186f7233c927e7db2dcc703c0e500b653ca82273b7bfad8045d85a47093505050505b90565b612d956127c5565b612da0838383612dc5565b505050565b6000612daf6123f7565b60000160089054906101000a900460ff16905090565b6000612dcf611985565b9050600073ffffffffffffffffffffffffffffffffffffffff168473ffffffffffffffffffffffffffffffffffffffff1603612e255781816002016000828254612e199190613a0e565b92505081905550612efe565b60008160000160008673ffffffffffffffffffffffffffffffffffffffff1673ffffffffffffffffffffffffffffffffffffffff16815260200190815260200160002054905082811015612eb4578481846040517fe450d38c000000000000000000000000000000000000000000000000000000008152600401612eab93929190613dd5565b60405180910390fd5b8281038260000160008773ffffffffffffffffffffffffffffffffffffffff1673ffffffffffffffffffffffffffffffffffffffff16815260200190815260200160002081905550505b600073ffffffffffffffffffffffffffffffffffffffff168373ffffffffffffffffffffffffffffffffffffffff1603612f4957818160020160008282540392505081905550612f99565b818160000160008573ffffffffffffffffffffffffffffffffffffffff1673ffffffffffffffffffffffffffffffffffffffff168152602001908152602001600020600082825401925050819055505b8273ffffffffffffffffffffffffffffffffffffffff168473ffffffffffffffffffffffffffffffffffffffff167fddf252ad1be2c89b69c2b068fc378daa952ba7f163c4a11628f55a4df523b3ef84604051612ff6919061322c565b60405180910390a350505050565b600081519050919050565b600082825260208201905092915050565b60005b8381101561303e578082015181840152602081019050613023565b60008484015250505050565b6000601f19601f8301169050919050565b600061306682613004565b613070818561300f565b9350613080818560208601613020565b6130898161304a565b840191505092915050565b600060208201905081810360008301526130ae818461305b565b905092915050565b600080fd5b600080fd5b600073ffffffffffffffffffffffffffffffffffffffff82169050919050565b60006130eb826130c0565b9050919050565b6130fb816130e0565b811461310657600080fd5b50565b600081359050613118816130f2565b92915050565b6000819050919050565b6131318161311e565b811461313c57600080fd5b50565b60008135905061314e81613128565b92915050565b6000806040838503121561316b5761316a6130b6565b5b600061317985828601613109565b925050602061318a8582860161313f565b9150509250929050565b60008115159050919050565b6131a981613194565b82525050565b60006020820190506131c460008301846131a0565b92915050565b6000806000606084860312156131e3576131e26130b6565b5b60006131f186828701613109565b935050602061320286828701613109565b925050604061321386828701613109565b9150509250925092565b6132268161311e565b82525050565b6000602082019050613241600083018461321d565b92915050565b6000806000606084860312156132605761325f6130b6565b5b600061326e86828701613109565b935050602061327f86828701613109565b92505060406132908682870161313f565b9150509250925092565b600060ff82169050919050565b6132b08161329a565b82525050565b60006020820190506132cb60008301846132a7565b92915050565b6000819050919050565b6132e4816132d1565b82525050565b60006020820190506132ff60008301846132db565b92915050565b60006020828403121561331b5761331a6130b6565b5b60006133298482850161313f565b91505092915050565b61333b816130e0565b82525050565b60006020820190506133566000830184613332565b92915050565b6000613367826130e0565b9050919050565b6133778161335c565b811461338257600080fd5b50565b6000813590506133948161336e565b92915050565b600080fd5b600080fd5b600080fd5b60008083601f8401126133bf576133be61339a565b5b8235905067ffffffffffffffff8111156133dc576133db61339f565b5b6020830191508360018202830111156133f8576133f76133a4565b5b9250929050565b60008060008060006080868803121561341b5761341a6130b6565b5b600061342988828901613385565b955050602061343a88828901613109565b945050604061344b8882890161313f565b935050606086013567ffffffffffffffff81111561346c5761346b6130bb565b5b613478888289016133a9565b92509250509295509295909350565b60006020828403121561349d5761349c6130b6565b5b60006134ab84828501613109565b91505092915050565b60007fff0000000000000000000000000000000000000000000000000000000000000082169050919050565b6134e9816134b4565b82525050565b600081519050919050565b600082825260208201905092915050565b6000819050602082019050919050565b6135248161311e565b82525050565b6000613536838361351b565b60208301905092915050565b6000602082019050919050565b600061355a826134ef565b61356481856134fa565b935061356f8361350b565b8060005b838110156135a0578151613587888261352a565b975061359283613542565b925050600181019050613573565b5085935050505092915050565b600060e0820190506135c2600083018a6134e0565b81810360208301526135d4818961305b565b905081810360408301526135e8818861305b565b90506135f7606083018761321d565b6136046080830186613332565b61361160a08301856132db565b81810360c0830152613623818461354f565b905098975050505050505050565b60007fffffffff0000000000000000000000000000000000000000000000000000000082169050919050565b61366681613631565b82525050565b6000602082019050613681600083018461365d565b92915050565b6136908161329a565b811461369b57600080fd5b50565b6000813590506136ad81613687565b92915050565b6136bc816132d1565b81146136c757600080fd5b50565b6000813590506136d9816136b3565b92915050565b600080600080600080600060e0888a0312156136fe576136fd6130b6565b5b600061370c8a828b01613109565b975050602061371d8a828b01613109565b965050604061372e8a828b0161313f565b955050606061373f8a828b0161313f565b94505060806137508a828b0161369e565b93505060a06137618a828b016136ca565b92505060c06137728a828b016136ca565b91505092959891949750929550565b60008060408385031215613798576137976130b6565b5b60006137a685828601613109565b92505060206137b785828601613109565b9150509250929050565b600080600080608085870312156137db576137da6130b6565b5b60006137e987828801613109565b94505060206137fa87828801613109565b935050604061380b87828801613109565b925050606061381c87828801613109565b91505092959194509250565b7f4e487b7100000000000000000000000000000000000000000000000000000000600052602260045260246000fd5b6000600282049050600182168061386f57607f821691505b60208210810361388257613881613828565b5b50919050565b7f496e76616c696420616464726573730000000000000000000000000000000000600082015250565b60006138be600f8361300f565b91506138c982613888565b602082019050919050565b600060208201905081810360008301526138ed816138b1565b9050919050565b600082825260208201905092915050565b82818337600083830152505050565b600061392083856138f4565b935061392d838584613905565b6139368361304a565b840190509392505050565b600060a0820190506139566000830189613332565b6139636020830188613332565b613970604083018761321d565b61397d606083018661321d565b8181036080830152613990818486613914565b9050979650505050505050565b6000815190506139ac816136b3565b92915050565b6000602082840312156139c8576139c76130b6565b5b60006139d68482850161399d565b91505092915050565b7f4e487b7100000000000000000000000000000000000000000000000000000000600052601160045260246000fd5b6000613a198261311e565b9150613a248361311e565b9250828201905080821115613a3c57613a3b6139df565b5b92915050565b6000613a4d8261311e565b9150613a588361311e565b9250828203905081811115613a7057613a6f6139df565b5b92915050565b7f4549503731323a20556e696e697469616c697a65640000000000000000000000600082015250565b6000613aac60158361300f565b9150613ab782613a76565b602082019050919050565b60006020820190508181036000830152613adb81613a9f565b9050919050565b7f4e487b7100000000000000000000000000000000000000000000000000000000600052604160045260246000fd5b7f496e76616c69642044414f206164647265737300000000000000000000000000600082015250565b6000613b4760138361300f565b9150613b5282613b11565b602082019050919050565b60006020820190508181036000830152613b7681613b3a565b9050919050565b600060c082019050613b9260008301896132db565b613b9f6020830188613332565b613bac6040830187613332565b613bb9606083018661321d565b613bc6608083018561321d565b613bd360a083018461321d565b979650505050505050565b6000604082019050613bf36000830185613332565b613c006020830184613332565b9392505050565b7f496e76616c69642077616c6c6574206164647265737300000000000000000000600082015250565b6000613c3d60168361300f565b9150613c4882613c07565b602082019050919050565b60006020820190508181036000830152613c6c81613c30565b9050919050565b6000819050919050565b600067ffffffffffffffff82169050919050565b6000819050919050565b6000613cb6613cb1613cac84613c73565b613c91565b613c7d565b9050919050565b613cc681613c9b565b82525050565b6000602082019050613ce16000830184613cbd565b92915050565b600080fd5b600080fd5b60008085851115613d0557613d04613ce7565b5b83861115613d1657613d15613cec565b5b6001850283019150848603905094509492505050565b600082905092915050565b600082821b905092915050565b6000613d508383613d2c565b82613d5b8135613631565b92506004821015613d9b57613d967fffffffff0000000000000000000000000000000000000000000000000000000083600403600802613d37565b831692505b505092915050565b6000604082019050613db86000830186613332565b8181036020830152613dcb818486613914565b9050949350505050565b6000606082019050613dea6000830186613332565b613df7602083018561321d565b613e04604083018461321d565b949350505050565b6000613e178261311e565b9150613e228361311e565b9250828202613e308161311e565b91508282048414831517613e4757613e466139df565b5b5092915050565b7f4e487b7100000000000000000000000000000000000000000000000000000000600052601260045260246000fd5b6000613e888261311e565b9150613e938361311e565b925082613ea357613ea2613e4e565b5b828204905092915050565b6000606082019050613ec36000830186613332565b613ed06020830185613332565b613edd604083018461365d565b949350505050565b600081519050919050565b600081905092915050565b6000613f0682613ee5565b613f108185613ef0565b9350613f20818560208601613020565b80840191505092915050565b6000613f388284613efb565b915081905092915050565b613f4c81613194565b8114613f5757600080fd5b50565b600081519050613f6981613f43565b92915050565b600063ffffffff82169050919050565b613f8881613f6f565b8114613f9357600080fd5b50565b600081519050613fa581613f7f565b92915050565b60008060408385031215613fc257613fc16130b6565b5b6000613fd085828601613f5a565b9250506020613fe185828601613f96565b9150509250929050565b600060208284031215614001576140006130b6565b5b600061400f84828501613f5a565b91505092915050565b600060a08201905061402d60008301886132db565b61403a60208301876132db565b61404760408301866132db565b614054606083018561321d565b6140616080830184613332565b9695505050505050565b600060808201905061408060008301876132db565b61408d60208301866132a7565b61409a60408301856132db565b6140a760608301846132db565b95945050505050565b7f4e487b7100000000000000000000000000000000000000000000000000000000600052602160045260246000fd5b60008190508160005260206000209050919050565b60006020601f8301049050919050565b6000600883026141347fffffffffffffffffffffffffffffffffffffffffffffffffffffffffffffffff82613d37565b61413e8683613d37565b95508019841693508086168417925050509392505050565b600061417161416c6141678461311e565b613c91565b61311e565b9050919050565b6000819050919050565b61418b83614156565b61419f61419782614178565b848454614104565b825550505050565b600090565b6141b46141a7565b6141bf818484614182565b505050565b5b818110156141e3576141d86000826141ac565b6001810190506141c5565b5050565b601f821115614228576141f9816140df565b614202846140f4565b81016020851015614211578190505b61422561421d856140f4565b8301826141c4565b50505b505050565b600082821c905092915050565b600061424b6000198460080261422d565b1980831691505092915050565b6000614264838361423a565b9150826002028217905092915050565b61427d82613004565b67ffffffffffffffff81111561429657614295613ae2565b5b6142a08254613857565b6142ab8282856141e7565b600060209050601f8311600181146142de57600084156142cc578287015190505b6142d68582614258565b86555061433e565b601f1984166142ec866140df565b60005b82811015614314578489015182556001820191506020850194506020810190506142ef565b86831015614331578489015161432d601f89168261423a565b8355505b6001600288020188555050505b50505050505056fea2646970667358221220e3b4ca12bfb103c684d141a5d217599709c51bb066ed33f0439d79844f902d3664736f6c634300081d0033",
  "linkReferences": {},
  "deployedLinkReferences": {}
}