{
    "contractName": "Kolocash",
    "abi": [
        {
            "inputs": [],
            "stateMutability": "nonpayable",
            "type": "constructor"
        },
        {
            "inputs": [
                {
                    "internalType": "address",
                    "name": "spender",
                    "type": "address"
                },
                {
                    "internalType": "uint256",
                    "name": "allowance",
                    "type": "uint256"
                },
                {
                    "internalType": "uint256",
                    "name": "needed",
                    "type": "uint256"
                }
            ],
            "name": "ERC20InsufficientAllowance",
            "type": "error"
        },
        {
            "inputs": [
                {
                    "internalType": "address",
                    "name": "sender",
                    "type": "address"
                },
                {
                    "internalType": "uint256",
                    "name": "balance",
                    "type": "uint256"
                },
                {
                    "internalType": "uint256",
                    "name": "needed",
                    "type": "uint256"
                }
            ],
            "name": "ERC20InsufficientBalance",
            "type": "error"
        },
        {
            "inputs": [
                {
                    "internalType": "address",
                    "name": "approver",
                    "type": "address"
                }
            ],
            "name": "ERC20InvalidApprover",
            "type": "error"
        },
        {
            "inputs": [
                {
                    "internalType": "address",
                    "name": "receiver",
                    "type": "address"
                }
            ],
            "name": "ERC20InvalidReceiver",
            "type": "error"
        },
        {
            "inputs": [
                {
                    "internalType": "address",
                    "name": "sender",
                    "type": "address"
                }
            ],
            "name": "ERC20InvalidSender",
            "type": "error"
        },
        {
            "inputs": [
                {
                    "internalType": "address",
                    "name": "spender",
                    "type": "address"
                }
            ],
            "name": "ERC20InvalidSpender",
            "type": "error"
        },
        {
            "inputs": [
                {
                    "internalType": "address",
                    "name": "owner",
                    "type": "address"
                }
            ],
            "name": "OwnableInvalidOwner",
            "type": "error"
        },
        {
            "inputs": [
                {
                    "internalType": "address",
                    "name": "account",
                    "type": "address"
                }
            ],
            "name": "OwnableUnauthorizedAccount",
            "type": "error"
        },
        {
            "anonymous": false,
            "inputs": [
                {
                    "indexed": true,
                    "internalType": "address",
                    "name": "owner",
                    "type": "address"
                },
                {
                    "indexed": true,
                    "internalType": "address",
                    "name": "spender",
                    "type": "address"
                },
                {
                    "indexed": false,
                    "internalType": "uint256",
                    "name": "value",
                    "type": "uint256"
                }
            ],
            "name": "Approval",
            "type": "event"
        },
        {
            "anonymous": false,
            "inputs": [
                {
                    "indexed": true,
                    "internalType": "address",
                    "name": "previousOwner",
                    "type": "address"
                },
                {
                    "indexed": true,
                    "internalType": "address",
                    "name": "newOwner",
                    "type": "address"
                }
            ],
            "name": "OwnershipTransferred",
            "type": "event"
        },
        {
            "anonymous": false,
            "inputs": [
                {
                    "indexed": true,
                    "internalType": "address",
                    "name": "from",
                    "type": "address"
                },
                {
                    "indexed": true,
                    "internalType": "address",
                    "name": "to",
                    "type": "address"
                },
                {
                    "indexed": false,
                    "internalType": "uint256",
                    "name": "value",
                    "type": "uint256"
                }
            ],
            "name": "Transfer",
            "type": "event"
        },
        {
            "inputs": [
                {
                    "internalType": "address",
                    "name": "owner",
                    "type": "address"
                },
                {
                    "internalType": "address",
                    "name": "spender",
                    "type": "address"
                }
            ],
            "name": "allowance",
            "outputs": [
                {
                    "internalType": "uint256",
                    "name": "",
                    "type": "uint256"
                }
            ],
            "stateMutability": "view",
            "type": "function"
        },
        {
            "inputs": [
                {
                    "internalType": "address",
                    "name": "spender",
                    "type": "address"
                },
                {
                    "internalType": "uint256",
                    "name": "value",
                    "type": "uint256"
                }
            ],
            "name": "approve",
            "outputs": [
                {
                    "internalType": "bool",
                    "name": "",
                    "type": "bool"
                }
            ],
            "stateMutability": "nonpayable",
            "type": "function"
        },
        {
            "inputs": [
                {
                    "internalType": "address",
                    "name": "account",
                    "type": "address"
                }
            ],
            "name": "balanceOf",
            "outputs": [
                {
                    "internalType": "uint256",
                    "name": "",
                    "type": "uint256"
                }
            ],
            "stateMutability": "view",
            "type": "function"
        },
        {
            "inputs": [
                {
                    "internalType": "uint256",
                    "name": "value",
                    "type": "uint256"
                }
            ],
            "name": "burn",
            "outputs": [],
            "stateMutability": "nonpayable",
            "type": "function"
        },
        {
            "inputs": [
                {
                    "internalType": "address",
                    "name": "account",
                    "type": "address"
                },
                {
                    "internalType": "uint256",
                    "name": "value",
                    "type": "uint256"
                }
            ],
            "name": "burnFrom",
            "outputs": [],
            "stateMutability": "nonpayable",
            "type": "function"
        },
        {
            "inputs": [],
            "name": "decimals",
            "outputs": [
                {
                    "internalType": "uint8",
                    "name": "",
                    "type": "uint8"
                }
            ],
            "stateMutability": "view",
            "type": "function"
        },
        {
            "inputs": [],
            "name": "initialSupply",
            "outputs": [
                {
                    "internalType": "uint256",
                    "name": "",
                    "type": "uint256"
                }
            ],
            "stateMutability": "view",
            "type": "function"
        },
        {
            "inputs": [
                {
                    "internalType": "address",
                    "name": "to",
                    "type": "address"
                },
                {
                    "internalType": "uint256",
                    "name": "amount",
                    "type": "uint256"
                }
            ],
            "name": "mint",
            "outputs": [],
            "stateMutability": "nonpayable",
            "type": "function"
        },
        {
            "inputs": [],
            "name": "name",
            "outputs": [
                {
                    "internalType": "string",
                    "name": "",
                    "type": "string"
                }
            ],
            "stateMutability": "view",
            "type": "function"
        },
        {
            "inputs": [],
            "name": "owner",
            "outputs": [
                {
                    "internalType": "address",
                    "name": "",
                    "type": "address"
                }
            ],
            "stateMutability": "view",
            "type": "function"
        },
        {
            "inputs": [],
            "name": "renounceOwnership",
            "outputs": [],
            "stateMutability": "nonpayable",
            "type": "function"
        },
        {
            "inputs": [],
            "name": "symbol",
            "outputs": [
                {
                    "internalType": "string",
                    "name": "",
                    "type": "string"
                }
            ],
            "stateMutability": "view",
            "type": "function"
        },
        {
            "inputs": [],
            "name": "totalSupply",
            "outputs": [
                {
                    "internalType": "uint256",
                    "name": "",
                    "type": "uint256"
                }
            ],
            "stateMutability": "view",
            "type": "function"
        },
        {
            "inputs": [
                {
                    "internalType": "address",
                    "name": "to",
                    "type": "address"
                },
                {
                    "internalType": "uint256",
                    "name": "value",
                    "type": "uint256"
                }
            ],
            "name": "transfer",
            "outputs": [
                {
                    "internalType": "bool",
                    "name": "",
                    "type": "bool"
                }
            ],
            "stateMutability": "nonpayable",
            "type": "function"
        },
        {
            "inputs": [
                {
                    "internalType": "address",
                    "name": "from",
                    "type": "address"
                },
                {
                    "internalType": "address",
                    "name": "to",
                    "type": "address"
                },
                {
                    "internalType": "uint256",
                    "name": "value",
                    "type": "uint256"
                }
            ],
            "name": "transferFrom",
            "outputs": [
                {
                    "internalType": "bool",
                    "name": "",
                    "type": "bool"
                }
            ],
            "stateMutability": "nonpayable",
            "type": "function"
        },
        {
            "inputs": [
                {
                    "internalType": "address",
                    "name": "newOwner",
                    "type": "address"
                }
            ],
            "name": "transferOwnership",
            "outputs": [],
            "stateMutability": "nonpayable",
            "type": "function"
        }
    ],
    "bytecode": "6080604052346103da57604080519081016001600160401b038111828210176102ed5760409081526008825267096ded8dec6c2e6d60c31b602083015280519081016001600160401b038111828210176102ed5760405260048152634b4f4c4f60e01b602082015281516001600160401b0381116102ed57600354600181811c911680156103d0575b60208210146102cf57601f811161036d575b50602092601f821160011461030c57928192935f92610301575b50508160011b915f199060031b1c1916176003555b80516001600160401b0381116102ed57600454600181811c911680156102e3575b60208210146102cf57601f811161026c575b50602091601f821160011461020c579181925f92610201575b50508160011b915f199060031b1c1916176004555b33156101ee57610139336103de565b631ad27480600655600254631ad2748081018091116101da57600255335f525f60205260405f20631ad274808154019055604051631ad2748081525f7fddf252ad1be2c89b69c2b068fc378daa952ba7f163c4a11628f55a4df523b3ef60203393a3600554336001600160a01b03909116036101c7576101b8336103de565b60405161092c90816104278239f35b63118cdaa760e01b5f523360045260245ffd5b634e487b7160e01b5f52601160045260245ffd5b631e4fbdf760e01b5f525f60045260245ffd5b015190505f80610115565b601f1982169260045f52805f20915f5b8581106102545750836001951061023c575b505050811b0160045561012a565b01515f1960f88460031b161c191690555f808061022e565b9192602060018192868501518155019401920161021c565b60045f527f8a35acfbc15ff81a39ae7d344fd709f28e8600b4aa8c65c6b64bfe7fe36bd19b601f830160051c810191602084106102c5575b601f0160051c01905b8181106102ba57506100fc565b5f81556001016102ad565b90915081906102a4565b634e487b7160e01b5f52602260045260245ffd5b90607f16906100ea565b634e487b7160e01b5f52604160045260245ffd5b015190505f806100b4565b601f1982169360035f52805f20915f5b868110610355575083600195961061033d575b505050811b016003556100c9565b01515f1960f88460031b161c191690555f808061032f565b9192602060018192868501518155019401920161031c565b60035f527fc2575a0e9e593c00f959f8c92f12db2869c3395a3b0502d05e2516446f71f85b601f830160051c810191602084106103c6575b601f0160051c01905b8181106103bb575061009a565b5f81556001016103ae565b90915081906103a5565b90607f1690610088565b5f80fd5b600580546001600160a01b039283166001600160a01b0319821681179092559091167f8be0079c531659141344cd1fd0a4f28419497f9722a3daafe3b4186f6b6457e05f80a356fe6080806040526004361015610012575f80fd5b5f3560e01c90816306fdde03146105dc57508063095ea7b31461053457806318160ddd1461051757806323b872dd146104df578063313ce567146104c4578063378dc3dc146104a757806340c10f19146103fb57806342966c68146103de57806370a08231146103a7578063715018a61461034c57806379cc67901461031a5780638da5cb5b146102f257806395d89b41146101d7578063a9059cbb146101a6578063dd62ed3e146101565763f2fde38b146100cc575f80fd5b34610152576020366003190112610152576100e56106d5565b6100ed61084b565b6001600160a01b0316801561013f57600580546001600160a01b0319811683179091556001600160a01b03167f8be0079c531659141344cd1fd0a4f28419497f9722a3daafe3b4186f6b6457e05f80a3005b631e4fbdf760e01b5f525f60045260245ffd5b5f80fd5b346101525760403660031901126101525761016f6106d5565b6101776106eb565b6001600160a01b039182165f908152600160209081526040808320949093168252928352819020549051908152f35b34610152576040366003190112610152576101cc6101c26106d5565b60243590336107a1565b602060405160018152f35b34610152575f366003190112610152576040515f6004548060011c906001811680156102e8575b6020831081146102d4578285529081156102b85750600114610263575b50819003601f01601f191681019067ffffffffffffffff82118183101761024f5761024b829182604052826106ab565b0390f35b634e487b7160e01b5f52604160045260245ffd5b905060045f527f8a35acfbc15ff81a39ae7d344fd709f28e8600b4aa8c65c6b64bfe7fe36bd19b5f905b8282106102a25750602091508201018261021b565b600181602092548385880101520191019061028d565b90506020925060ff191682840152151560051b8201018261021b565b634e487b7160e01b5f52602260045260245ffd5b91607f16916101fe565b34610152575f366003190112610152576005546040516001600160a01b039091168152602090f35b346101525760403660031901126101525761034a6103366106d5565b60243590610345823383610701565b610872565b005b34610152575f3660031901126101525761036461084b565b600580546001600160a01b031981169091555f906001600160a01b03167f8be0079c531659141344cd1fd0a4f28419497f9722a3daafe3b4186f6b6457e08280a3005b34610152576020366003190112610152576001600160a01b036103c86106d5565b165f525f602052602060405f2054604051908152f35b346101525760203660031901126101525761034a60043533610872565b34610152576040366003190112610152576104146106d5565b6024359061042061084b565b6001600160a01b031690811561049457600254908082018092116104805760207fddf252ad1be2c89b69c2b068fc378daa952ba7f163c4a11628f55a4df523b3ef915f9360025584845283825260408420818154019055604051908152a3005b634e487b7160e01b5f52601160045260245ffd5b63ec442f0560e01b5f525f60045260245ffd5b34610152575f366003190112610152576020600654604051908152f35b34610152575f36600319011261015257602060405160128152f35b34610152576060366003190112610152576101cc6104fb6106d5565b6105036106eb565b60443591610512833383610701565b6107a1565b34610152575f366003190112610152576020600254604051908152f35b346101525760403660031901126101525761054d6106d5565b6024359033156105c9576001600160a01b03169081156105b657335f52600160205260405f20825f526020528060405f20556040519081527f8c5be1e5ebec7d5bd14f71427d1e84f3dd0314c0f7b2291e5b200ac8c7c3b92560203392a3602060405160018152f35b634a1406b160e11b5f525f60045260245ffd5b63e602df0560e01b5f525f60045260245ffd5b34610152575f366003190112610152575f6003548060011c906001811680156106a1575b6020831081146102d4578285529081156102b8575060011461064c5750819003601f01601f191681019067ffffffffffffffff82118183101761024f5761024b829182604052826106ab565b905060035f527fc2575a0e9e593c00f959f8c92f12db2869c3395a3b0502d05e2516446f71f85b5f905b82821061068b5750602091508201018261021b565b6001816020925483858801015201910190610676565b91607f1691610600565b602060409281835280519182918282860152018484015e5f828201840152601f01601f1916010190565b600435906001600160a01b038216820361015257565b602435906001600160a01b038216820361015257565b6001600160a01b039081165f8181526001602081815260408084209587168452949052929020549392918401610738575b50505050565b82841061077e5780156105c9576001600160a01b038216156105b6575f52600160205260405f209060018060a01b03165f5260205260405f20910390555f808080610732565b508290637dc7a0d960e11b5f5260018060a01b031660045260245260445260645ffd5b6001600160a01b0316908115610838576001600160a01b031691821561049457815f525f60205260405f205481811061081f57817fddf252ad1be2c89b69c2b068fc378daa952ba7f163c4a11628f55a4df523b3ef92602092855f525f84520360405f2055845f525f825260405f20818154019055604051908152a3565b8263391434e360e21b5f5260045260245260445260645ffd5b634b637e8f60e11b5f525f60045260245ffd5b6005546001600160a01b0316330361085f57565b63118cdaa760e01b5f523360045260245ffd5b9091906001600160a01b0316801561083857805f525f60205260405f20548381106108dc576020845f94957fddf252ad1be2c89b69c2b068fc378daa952ba7f163c4a11628f55a4df523b3ef938587528684520360408620558060025403600255604051908152a3565b915063391434e360e21b5f5260045260245260445260645ffdfea264697066735822122065aebf9e2ea353463e7a725f98bb9eadc0b95afba96a2ed3514482f1c1485dde64736f6c634300081c0033",
    "sourcePath": "/home/charles/web/kolocash/kolo/contracts/Kolocash.sol",
    "compiler": {
        "name": "solc",
        "version": "0.8.28+commit.7893614a"
    },
    "functionHashes": {
        "allowance(address,address)": "dd62ed3e",
        "approve(address,uint256)": "095ea7b3",
        "balanceOf(address)": "70a08231",
        "burn(uint256)": "42966c68",
        "burnFrom(address,uint256)": "79cc6790",
        "decimals()": "313ce567",
        "initialSupply()": "378dc3dc",
        "mint(address,uint256)": "40c10f19",
        "name()": "06fdde03",
        "owner()": "8da5cb5b",
        "renounceOwnership()": "715018a6",
        "symbol()": "95d89b41",
        "totalSupply()": "18160ddd",
        "transfer(address,uint256)": "a9059cbb",
        "transferFrom(address,address,uint256)": "23b872dd",
        "transferOwnership(address)": "f2fde38b"
    },
    "gasEstimates": {
        "creation": {
            "codeDepositCost": "469600",
            "executionCost": "infinite",
            "totalCost": "infinite"
        },
        "external": {
            "allowance(address,address)": "2881",
            "approve(address,uint256)": "24325",
            "balanceOf(address)": "2581",
            "burn(uint256)": "50725",
            "burnFrom(address,uint256)": "75557",
            "decimals()": "241",
            "initialSupply()": "2366",
            "mint(address,uint256)": "52856",
            "name()": "infinite",
            "owner()": "2522",
            "renounceOwnership()": "28258",
            "symbol()": "infinite",
            "totalSupply()": "2300",
            "transfer(address,uint256)": "51040",
            "transferFrom(address,address,uint256)": "75583",
            "transferOwnership(address)": "28498"
        }
    }
}