{
  "_format": "hh-sol-artifact-1",
  "contractName": "KoloDAO",
  "sourceName": "contracts/KoloDAO.sol",
  "abi": [
    {
      "inputs": [
        {
          "internalType": "contract IVotes",
          "name": "_token",
          "type": "address"
        }
      ],
      "stateMutability": "nonpayable",
      "type": "constructor"
    },
    {
      "inputs": [],
      "name": "FailedCall",
      "type": "error"
    },
    {
      "inputs": [
        {
          "internalType": "address",
          "name": "voter",
          "type": "address"
        }
      ],
      "name": "GovernorAlreadyCastVote",
      "type": "error"
    },
    {
      "inputs": [
        {
          "internalType": "uint256",
          "name": "proposalId",
          "type": "uint256"
        }
      ],
      "name": "GovernorAlreadyQueuedProposal",
      "type": "error"
    },
    {
      "inputs": [],
      "name": "GovernorDisabledDeposit",
      "type": "error"
    },
    {
      "inputs": [
        {
          "internalType": "address",
          "name": "proposer",
          "type": "address"
        },
        {
          "internalType": "uint256",
          "name": "votes",
          "type": "uint256"
        },
        {
          "internalType": "uint256",
          "name": "threshold",
          "type": "uint256"
        }
      ],
      "name": "GovernorInsufficientProposerVotes",
      "type": "error"
    },
    {
      "inputs": [
        {
          "internalType": "uint256",
          "name": "targets",
          "type": "uint256"
        },
        {
          "internalType": "uint256",
          "name": "calldatas",
          "type": "uint256"
        },
        {
          "internalType": "uint256",
          "name": "values",
          "type": "uint256"
        }
      ],
      "name": "GovernorInvalidProposalLength",
      "type": "error"
    },
    {
      "inputs": [
        {
          "internalType": "address",
          "name": "voter",
          "type": "address"
        }
      ],
      "name": "GovernorInvalidSignature",
      "type": "error"
    },
    {
      "inputs": [],
      "name": "GovernorInvalidVoteParams",
      "type": "error"
    },
    {
      "inputs": [],
      "name": "GovernorInvalidVoteType",
      "type": "error"
    },
    {
      "inputs": [
        {
          "internalType": "uint256",
          "name": "votingPeriod",
          "type": "uint256"
        }
      ],
      "name": "GovernorInvalidVotingPeriod",
      "type": "error"
    },
    {
      "inputs": [
        {
          "internalType": "uint256",
          "name": "proposalId",
          "type": "uint256"
        }
      ],
      "name": "GovernorNonexistentProposal",
      "type": "error"
    },
    {
      "inputs": [
        {
          "internalType": "uint256",
          "name": "proposalId",
          "type": "uint256"
        }
      ],
      "name": "GovernorNotQueuedProposal",
      "type": "error"
    },
    {
      "inputs": [
        {
          "internalType": "address",
          "name": "account",
          "type": "address"
        }
      ],
      "name": "GovernorOnlyExecutor",
      "type": "error"
    },
    {
      "inputs": [
        {
          "internalType": "address",
          "name": "account",
          "type": "address"
        }
      ],
      "name": "GovernorOnlyProposer",
      "type": "error"
    },
    {
      "inputs": [],
      "name": "GovernorQueueNotImplemented",
      "type": "error"
    },
    {
      "inputs": [
        {
          "internalType": "address",
          "name": "proposer",
          "type": "address"
        }
      ],
      "name": "GovernorRestrictedProposer",
      "type": "error"
    },
    {
      "inputs": [
        {
          "internalType": "uint256",
          "name": "proposalId",
          "type": "uint256"
        },
        {
          "internalType": "enum IGovernor.ProposalState",
          "name": "current",
          "type": "uint8"
        },
        {
          "internalType": "bytes32",
          "name": "expectedStates",
          "type": "bytes32"
        }
      ],
      "name": "GovernorUnexpectedProposalState",
      "type": "error"
    },
    {
      "inputs": [
        {
          "internalType": "address",
          "name": "account",
          "type": "address"
        },
        {
          "internalType": "uint256",
          "name": "currentNonce",
          "type": "uint256"
        }
      ],
      "name": "InvalidAccountNonce",
      "type": "error"
    },
    {
      "inputs": [],
      "name": "InvalidShortString",
      "type": "error"
    },
    {
      "inputs": [
        {
          "internalType": "uint8",
          "name": "bits",
          "type": "uint8"
        },
        {
          "internalType": "uint256",
          "name": "value",
          "type": "uint256"
        }
      ],
      "name": "SafeCastOverflowedUintDowncast",
      "type": "error"
    },
    {
      "inputs": [
        {
          "internalType": "string",
          "name": "str",
          "type": "string"
        }
      ],
      "name": "StringTooLong",
      "type": "error"
    },
    {
      "anonymous": false,
      "inputs": [],
      "name": "EIP712DomainChanged",
      "type": "event"
    },
    {
      "anonymous": false,
      "inputs": [
        {
          "indexed": false,
          "internalType": "uint256",
          "name": "proposalId",
          "type": "uint256"
        }
      ],
      "name": "ProposalCanceled",
      "type": "event"
    },
    {
      "anonymous": false,
      "inputs": [
        {
          "indexed": false,
          "internalType": "uint256",
          "name": "proposalId",
          "type": "uint256"
        },
        {
          "indexed": false,
          "internalType": "address",
          "name": "proposer",
          "type": "address"
        },
        {
          "indexed": false,
          "internalType": "address[]",
          "name": "targets",
          "type": "address[]"
        },
        {
          "indexed": false,
          "internalType": "uint256[]",
          "name": "values",
          "type": "uint256[]"
        },
        {
          "indexed": false,
          "internalType": "string[]",
          "name": "signatures",
          "type": "string[]"
        },
        {
          "indexed": false,
          "internalType": "bytes[]",
          "name": "calldatas",
          "type": "bytes[]"
        },
        {
          "indexed": false,
          "internalType": "uint256",
          "name": "voteStart",
          "type": "uint256"
        },
        {
          "indexed": false,
          "internalType": "uint256",
          "name": "voteEnd",
          "type": "uint256"
        },
        {
          "indexed": false,
          "internalType": "string",
          "name": "description",
          "type": "string"
        }
      ],
      "name": "ProposalCreated",
      "type": "event"
    },
    {
      "anonymous": false,
      "inputs": [
        {
          "indexed": false,
          "internalType": "uint256",
          "name": "proposalId",
          "type": "uint256"
        }
      ],
      "name": "ProposalExecuted",
      "type": "event"
    },
    {
      "anonymous": false,
      "inputs": [
        {
          "indexed": false,
          "internalType": "uint256",
          "name": "proposalId",
          "type": "uint256"
        },
        {
          "indexed": false,
          "internalType": "uint256",
          "name": "etaSeconds",
          "type": "uint256"
        }
      ],
      "name": "ProposalQueued",
      "type": "event"
    },
    {
      "anonymous": false,
      "inputs": [
        {
          "indexed": false,
          "internalType": "uint256",
          "name": "oldProposalThreshold",
          "type": "uint256"
        },
        {
          "indexed": false,
          "internalType": "uint256",
          "name": "newProposalThreshold",
          "type": "uint256"
        }
      ],
      "name": "ProposalThresholdSet",
      "type": "event"
    },
    {
      "anonymous": false,
      "inputs": [
        {
          "indexed": true,
          "internalType": "address",
          "name": "voter",
          "type": "address"
        },
        {
          "indexed": false,
          "internalType": "uint256",
          "name": "proposalId",
          "type": "uint256"
        },
        {
          "indexed": false,
          "internalType": "uint8",
          "name": "support",
          "type": "uint8"
        },
        {
          "indexed": false,
          "internalType": "uint256",
          "name": "weight",
          "type": "uint256"
        },
        {
          "indexed": false,
          "internalType": "string",
          "name": "reason",
          "type": "string"
        }
      ],
      "name": "VoteCast",
      "type": "event"
    },
    {
      "anonymous": false,
      "inputs": [
        {
          "indexed": true,
          "internalType": "address",
          "name": "voter",
          "type": "address"
        },
        {
          "indexed": false,
          "internalType": "uint256",
          "name": "proposalId",
          "type": "uint256"
        },
        {
          "indexed": false,
          "internalType": "uint8",
          "name": "support",
          "type": "uint8"
        },
        {
          "indexed": false,
          "internalType": "uint256",
          "name": "weight",
          "type": "uint256"
        },
        {
          "indexed": false,
          "internalType": "string",
          "name": "reason",
          "type": "string"
        },
        {
          "indexed": false,
          "internalType": "bytes",
          "name": "params",
          "type": "bytes"
        }
      ],
      "name": "VoteCastWithParams",
      "type": "event"
    },
    {
      "anonymous": false,
      "inputs": [
        {
          "indexed": false,
          "internalType": "uint256",
          "name": "oldVotingDelay",
          "type": "uint256"
        },
        {
          "indexed": false,
          "internalType": "uint256",
          "name": "newVotingDelay",
          "type": "uint256"
        }
      ],
      "name": "VotingDelaySet",
      "type": "event"
    },
    {
      "anonymous": false,
      "inputs": [
        {
          "indexed": false,
          "internalType": "uint256",
          "name": "oldVotingPeriod",
          "type": "uint256"
        },
        {
          "indexed": false,
          "internalType": "uint256",
          "name": "newVotingPeriod",
          "type": "uint256"
        }
      ],
      "name": "VotingPeriodSet",
      "type": "event"
    },
    {
      "inputs": [],
      "name": "BALLOT_TYPEHASH",
      "outputs": [
        {
          "internalType": "bytes32",
          "name": "",
          "type": "bytes32"
        }
      ],
      "stateMutability": "view",
      "type": "function"
    },
    {
      "inputs": [],
      "name": "CLOCK_MODE",
      "outputs": [
        {
          "internalType": "string",
          "name": "",
          "type": "string"
        }
      ],
      "stateMutability": "view",
      "type": "function"
    },
    {
      "inputs": [],
      "name": "COUNTING_MODE",
      "outputs": [
        {
          "internalType": "string",
          "name": "",
          "type": "string"
        }
      ],
      "stateMutability": "pure",
      "type": "function"
    },
    {
      "inputs": [],
      "name": "EXTENDED_BALLOT_TYPEHASH",
      "outputs": [
        {
          "internalType": "bytes32",
          "name": "",
          "type": "bytes32"
        }
      ],
      "stateMutability": "view",
      "type": "function"
    },
    {
      "inputs": [
        {
          "internalType": "address[]",
          "name": "targets",
          "type": "address[]"
        },
        {
          "internalType": "uint256[]",
          "name": "values",
          "type": "uint256[]"
        },
        {
          "internalType": "bytes[]",
          "name": "calldatas",
          "type": "bytes[]"
        },
        {
          "internalType": "bytes32",
          "name": "descriptionHash",
          "type": "bytes32"
        }
      ],
      "name": "cancel",
      "outputs": [
        {
          "internalType": "uint256",
          "name": "",
          "type": "uint256"
        }
      ],
      "stateMutability": "nonpayable",
      "type": "function"
    },
    {
      "inputs": [
        {
          "internalType": "uint256",
          "name": "proposalId",
          "type": "uint256"
        },
        {
          "internalType": "uint8",
          "name": "support",
          "type": "uint8"
        }
      ],
      "name": "castVote",
      "outputs": [
        {
          "internalType": "uint256",
          "name": "",
          "type": "uint256"
        }
      ],
      "stateMutability": "nonpayable",
      "type": "function"
    },
    {
      "inputs": [
        {
          "internalType": "uint256",
          "name": "proposalId",
          "type": "uint256"
        },
        {
          "internalType": "uint8",
          "name": "support",
          "type": "uint8"
        },
        {
          "internalType": "address",
          "name": "voter",
          "type": "address"
        },
        {
          "internalType": "bytes",
          "name": "signature",
          "type": "bytes"
        }
      ],
      "name": "castVoteBySig",
      "outputs": [
        {
          "internalType": "uint256",
          "name": "",
          "type": "uint256"
        }
      ],
      "stateMutability": "nonpayable",
      "type": "function"
    },
    {
      "inputs": [
        {
          "internalType": "uint256",
          "name": "proposalId",
          "type": "uint256"
        },
        {
          "internalType": "uint8",
          "name": "support",
          "type": "uint8"
        },
        {
          "internalType": "string",
          "name": "reason",
          "type": "string"
        }
      ],
      "name": "castVoteWithReason",
      "outputs": [
        {
          "internalType": "uint256",
          "name": "",
          "type": "uint256"
        }
      ],
      "stateMutability": "nonpayable",
      "type": "function"
    },
    {
      "inputs": [
        {
          "internalType": "uint256",
          "name": "proposalId",
          "type": "uint256"
        },
        {
          "internalType": "uint8",
          "name": "support",
          "type": "uint8"
        },
        {
          "internalType": "string",
          "name": "reason",
          "type": "string"
        },
        {
          "internalType": "bytes",
          "name": "params",
          "type": "bytes"
        }
      ],
      "name": "castVoteWithReasonAndParams",
      "outputs": [
        {
          "internalType": "uint256",
          "name": "",
          "type": "uint256"
        }
      ],
      "stateMutability": "nonpayable",
      "type": "function"
    },
    {
      "inputs": [
        {
          "internalType": "uint256",
          "name": "proposalId",
          "type": "uint256"
        },
        {
          "internalType": "uint8",
          "name": "support",
          "type": "uint8"
        },
        {
          "internalType": "address",
          "name": "voter",
          "type": "address"
        },
        {
          "internalType": "string",
          "name": "reason",
          "type": "string"
        },
        {
          "internalType": "bytes",
          "name": "params",
          "type": "bytes"
        },
        {
          "internalType": "bytes",
          "name": "signature",
          "type": "bytes"
        }
      ],
      "name": "castVoteWithReasonAndParamsBySig",
      "outputs": [
        {
          "internalType": "uint256",
          "name": "",
          "type": "uint256"
        }
      ],
      "stateMutability": "nonpayable",
      "type": "function"
    },
    {
      "inputs": [],
      "name": "clock",
      "outputs": [
        {
          "internalType": "uint48",
          "name": "",
          "type": "uint48"
        }
      ],
      "stateMutability": "view",
      "type": "function"
    },
    {
      "inputs": [],
      "name": "eip712Domain",
      "outputs": [
        {
          "internalType": "bytes1",
          "name": "fields",
          "type": "bytes1"
        },
        {
          "internalType": "string",
          "name": "name",
          "type": "string"
        },
        {
          "internalType": "string",
          "name": "version",
          "type": "string"
        },
        {
          "internalType": "uint256",
          "name": "chainId",
          "type": "uint256"
        },
        {
          "internalType": "address",
          "name": "verifyingContract",
          "type": "address"
        },
        {
          "internalType": "bytes32",
          "name": "salt",
          "type": "bytes32"
        },
        {
          "internalType": "uint256[]",
          "name": "extensions",
          "type": "uint256[]"
        }
      ],
      "stateMutability": "view",
      "type": "function"
    },
    {
      "inputs": [
        {
          "internalType": "address[]",
          "name": "targets",
          "type": "address[]"
        },
        {
          "internalType": "uint256[]",
          "name": "values",
          "type": "uint256[]"
        },
        {
          "internalType": "bytes[]",
          "name": "calldatas",
          "type": "bytes[]"
        },
        {
          "internalType": "bytes32",
          "name": "descriptionHash",
          "type": "bytes32"
        }
      ],
      "name": "execute",
      "outputs": [
        {
          "internalType": "uint256",
          "name": "",
          "type": "uint256"
        }
      ],
      "stateMutability": "payable",
      "type": "function"
    },
    {
      "inputs": [
        {
          "internalType": "address",
          "name": "account",
          "type": "address"
        },
        {
          "internalType": "uint256",
          "name": "timepoint",
          "type": "uint256"
        }
      ],
      "name": "getVotes",
      "outputs": [
        {
          "internalType": "uint256",
          "name": "",
          "type": "uint256"
        }
      ],
      "stateMutability": "view",
      "type": "function"
    },
    {
      "inputs": [
        {
          "internalType": "address",
          "name": "account",
          "type": "address"
        },
        {
          "internalType": "uint256",
          "name": "timepoint",
          "type": "uint256"
        },
        {
          "internalType": "bytes",
          "name": "params",
          "type": "bytes"
        }
      ],
      "name": "getVotesWithParams",
      "outputs": [
        {
          "internalType": "uint256",
          "name": "",
          "type": "uint256"
        }
      ],
      "stateMutability": "view",
      "type": "function"
    },
    {
      "inputs": [
        {
          "internalType": "uint256",
          "name": "proposalId",
          "type": "uint256"
        },
        {
          "internalType": "address",
          "name": "account",
          "type": "address"
        }
      ],
      "name": "hasVoted",
      "outputs": [
        {
          "internalType": "bool",
          "name": "",
          "type": "bool"
        }
      ],
      "stateMutability": "view",
      "type": "function"
    },
    {
      "inputs": [
        {
          "internalType": "address[]",
          "name": "targets",
          "type": "address[]"
        },
        {
          "internalType": "uint256[]",
          "name": "values",
          "type": "uint256[]"
        },
        {
          "internalType": "bytes[]",
          "name": "calldatas",
          "type": "bytes[]"
        },
        {
          "internalType": "bytes32",
          "name": "descriptionHash",
          "type": "bytes32"
        }
      ],
      "name": "hashProposal",
      "outputs": [
        {
          "internalType": "uint256",
          "name": "",
          "type": "uint256"
        }
      ],
      "stateMutability": "pure",
      "type": "function"
    },
    {
      "inputs": [],
      "name": "name",
      "outputs": [
        {
          "internalType": "string",
          "name": "",
          "type": "string"
        }
      ],
      "stateMutability": "view",
      "type": "function"
    },
    {
      "inputs": [
        {
          "internalType": "address",
          "name": "owner",
          "type": "address"
        }
      ],
      "name": "nonces",
      "outputs": [
        {
          "internalType": "uint256",
          "name": "",
          "type": "uint256"
        }
      ],
      "stateMutability": "view",
      "type": "function"
    },
    {
      "inputs": [
        {
          "internalType": "address",
          "name": "",
          "type": "address"
        },
        {
          "internalType": "address",
          "name": "",
          "type": "address"
        },
        {
          "internalType": "uint256[]",
          "name": "",
          "type": "uint256[]"
        },
        {
          "internalType": "uint256[]",
          "name": "",
          "type": "uint256[]"
        },
        {
          "internalType": "bytes",
          "name": "",
          "type": "bytes"
        }
      ],
      "name": "onERC1155BatchReceived",
      "outputs": [
        {
          "internalType": "bytes4",
          "name": "",
          "type": "bytes4"
        }
      ],
      "stateMutability": "nonpayable",
      "type": "function"
    },
    {
      "inputs": [
        {
          "internalType": "address",
          "name": "",
          "type": "address"
        },
        {
          "internalType": "address",
          "name": "",
          "type": "address"
        },
        {
          "internalType": "uint256",
          "name": "",
          "type": "uint256"
        },
        {
          "internalType": "uint256",
          "name": "",
          "type": "uint256"
        },
        {
          "internalType": "bytes",
          "name": "",
          "type": "bytes"
        }
      ],
      "name": "onERC1155Received",
      "outputs": [
        {
          "internalType": "bytes4",
          "name": "",
          "type": "bytes4"
        }
      ],
      "stateMutability": "nonpayable",
      "type": "function"
    },
    {
      "inputs": [
        {
          "internalType": "address",
          "name": "",
          "type": "address"
        },
        {
          "internalType": "address",
          "name": "",
          "type": "address"
        },
        {
          "internalType": "uint256",
          "name": "",
          "type": "uint256"
        },
        {
          "internalType": "bytes",
          "name": "",
          "type": "bytes"
        }
      ],
      "name": "onERC721Received",
      "outputs": [
        {
          "internalType": "bytes4",
          "name": "",
          "type": "bytes4"
        }
      ],
      "stateMutability": "nonpayable",
      "type": "function"
    },
    {
      "inputs": [
        {
          "internalType": "uint256",
          "name": "proposalId",
          "type": "uint256"
        }
      ],
      "name": "proposalDeadline",
      "outputs": [
        {
          "internalType": "uint256",
          "name": "",
          "type": "uint256"
        }
      ],
      "stateMutability": "view",
      "type": "function"
    },
    {
      "inputs": [
        {
          "internalType": "uint256",
          "name": "proposalId",
          "type": "uint256"
        }
      ],
      "name": "proposalEta",
      "outputs": [
        {
          "internalType": "uint256",
          "name": "",
          "type": "uint256"
        }
      ],
      "stateMutability": "view",
      "type": "function"
    },
    {
      "inputs": [
        {
          "internalType": "uint256",
          "name": "",
          "type": "uint256"
        }
      ],
      "name": "proposalNeedsQueuing",
      "outputs": [
        {
          "internalType": "bool",
          "name": "",
          "type": "bool"
        }
      ],
      "stateMutability": "view",
      "type": "function"
    },
    {
      "inputs": [
        {
          "internalType": "uint256",
          "name": "proposalId",
          "type": "uint256"
        }
      ],
      "name": "proposalProposer",
      "outputs": [
        {
          "internalType": "address",
          "name": "",
          "type": "address"
        }
      ],
      "stateMutability": "view",
      "type": "function"
    },
    {
      "inputs": [
        {
          "internalType": "uint256",
          "name": "proposalId",
          "type": "uint256"
        }
      ],
      "name": "proposalSnapshot",
      "outputs": [
        {
          "internalType": "uint256",
          "name": "",
          "type": "uint256"
        }
      ],
      "stateMutability": "view",
      "type": "function"
    },
    {
      "inputs": [],
      "name": "proposalThreshold",
      "outputs": [
        {
          "internalType": "uint256",
          "name": "",
          "type": "uint256"
        }
      ],
      "stateMutability": "view",
      "type": "function"
    },
    {
      "inputs": [
        {
          "internalType": "uint256",
          "name": "proposalId",
          "type": "uint256"
        }
      ],
      "name": "proposalVotes",
      "outputs": [
        {
          "internalType": "uint256",
          "name": "againstVotes",
          "type": "uint256"
        },
        {
          "internalType": "uint256",
          "name": "forVotes",
          "type": "uint256"
        },
        {
          "internalType": "uint256",
          "name": "abstainVotes",
          "type": "uint256"
        }
      ],
      "stateMutability": "view",
      "type": "function"
    },
    {
      "inputs": [
        {
          "internalType": "address[]",
          "name": "targets",
          "type": "address[]"
        },
        {
          "internalType": "uint256[]",
          "name": "values",
          "type": "uint256[]"
        },
        {
          "internalType": "bytes[]",
          "name": "calldatas",
          "type": "bytes[]"
        },
        {
          "internalType": "string",
          "name": "description",
          "type": "string"
        }
      ],
      "name": "propose",
      "outputs": [
        {
          "internalType": "uint256",
          "name": "",
          "type": "uint256"
        }
      ],
      "stateMutability": "nonpayable",
      "type": "function"
    },
    {
      "inputs": [
        {
          "internalType": "address[]",
          "name": "targets",
          "type": "address[]"
        },
        {
          "internalType": "uint256[]",
          "name": "values",
          "type": "uint256[]"
        },
        {
          "internalType": "bytes[]",
          "name": "calldatas",
          "type": "bytes[]"
        },
        {
          "internalType": "bytes32",
          "name": "descriptionHash",
          "type": "bytes32"
        }
      ],
      "name": "queue",
      "outputs": [
        {
          "internalType": "uint256",
          "name": "",
          "type": "uint256"
        }
      ],
      "stateMutability": "nonpayable",
      "type": "function"
    },
    {
      "inputs": [
        {
          "internalType": "uint256",
          "name": "",
          "type": "uint256"
        }
      ],
      "name": "quorum",
      "outputs": [
        {
          "internalType": "uint256",
          "name": "",
          "type": "uint256"
        }
      ],
      "stateMutability": "pure",
      "type": "function"
    },
    {
      "inputs": [
        {
          "internalType": "address",
          "name": "target",
          "type": "address"
        },
        {
          "internalType": "uint256",
          "name": "value",
          "type": "uint256"
        },
        {
          "internalType": "bytes",
          "name": "data",
          "type": "bytes"
        }
      ],
      "name": "relay",
      "outputs": [],
      "stateMutability": "payable",
      "type": "function"
    },
    {
      "inputs": [
        {
          "internalType": "uint256",
          "name": "newProposalThreshold",
          "type": "uint256"
        }
      ],
      "name": "setProposalThreshold",
      "outputs": [],
      "stateMutability": "nonpayable",
      "type": "function"
    },
    {
      "inputs": [
        {
          "internalType": "uint48",
          "name": "newVotingDelay",
          "type": "uint48"
        }
      ],
      "name": "setVotingDelay",
      "outputs": [],
      "stateMutability": "nonpayable",
      "type": "function"
    },
    {
      "inputs": [
        {
          "internalType": "uint32",
          "name": "newVotingPeriod",
          "type": "uint32"
        }
      ],
      "name": "setVotingPeriod",
      "outputs": [],
      "stateMutability": "nonpayable",
      "type": "function"
    },
    {
      "inputs": [
        {
          "internalType": "uint256",
          "name": "proposalId",
          "type": "uint256"
        }
      ],
      "name": "state",
      "outputs": [
        {
          "internalType": "enum IGovernor.ProposalState",
          "name": "",
          "type": "uint8"
        }
      ],
      "stateMutability": "view",
      "type": "function"
    },
    {
      "inputs": [
        {
          "internalType": "bytes4",
          "name": "interfaceId",
          "type": "bytes4"
        }
      ],
      "name": "supportsInterface",
      "outputs": [
        {
          "internalType": "bool",
          "name": "",
          "type": "bool"
        }
      ],
      "stateMutability": "view",
      "type": "function"
    },
    {
      "inputs": [],
      "name": "token",
      "outputs": [
        {
          "internalType": "contract IERC5805",
          "name": "",
          "type": "address"
        }
      ],
      "stateMutability": "view",
      "type": "function"
    },
    {
      "inputs": [],
      "name": "version",
      "outputs": [
        {
          "internalType": "string",
          "name": "",
          "type": "string"
        }
      ],
      "stateMutability": "view",
      "type": "function"
    },
    {
      "inputs": [],
      "name": "votingDelay",
      "outputs": [
        {
          "internalType": "uint256",
          "name": "",
          "type": "uint256"
        }
      ],
      "stateMutability": "view",
      "type": "function"
    },
    {
      "inputs": [],
      "name": "votingPeriod",
      "outputs": [
        {
          "internalType": "uint256",
          "name": "",
          "type": "uint256"
        }
      ],
      "stateMutability": "view",
      "type": "function"
    },
    {
      "stateMutability": "payable",
      "type": "receive"
    }
  ],
  "bytecode": "0x61018060405234801561001157600080fd5b5060405161688e38038061688e833981810160405281019061003391906104ee565b806201518062093a8060006040518060400160405280600781526020017f4b6f6c6f44414f00000000000000000000000000000000000000000000000000815250806100836101aa60201b60201c565b6100976000836101e760201b90919060201c565b61012081815250506100b36001826101e760201b90919060201c565b6101408181525050818051906020012060e08181525050808051906020012061010081815250504660a081815250506100f061023760201b60201c565b608081815250503073ffffffffffffffffffffffffffffffffffffffff1660c08173ffffffffffffffffffffffffffffffffffffffff16815250505050806003908161013c919061076b565b505061014d8361029260201b60201c565b61015c8261030760201b60201c565b61016b816103c260201b60201c565b5050508073ffffffffffffffffffffffffffffffffffffffff166101608173ffffffffffffffffffffffffffffffffffffffff16815250505050610b5a565b60606040518060400160405280600181526020017f3100000000000000000000000000000000000000000000000000000000000000815250905090565b6000602083511015610209576102028361040760201b60201c565b9050610231565b826102198361046f60201b60201c565b6000019081610228919061076b565b5060ff60001b90505b92915050565b60007f8b73c3c69bb8fe3d512ecc4cf759cc79239f7b179b0ffacaa9a75d522b39400f60e051610100514630604051602001610277959493929190610874565b60405160208183030381529060405280519060200120905090565b7fc565b045403dc03c2eea82b81a0465edad9e2e7fc4d97e11421c209da93d7a93600860009054906101000a900465ffffffffffff16826040516102d792919061090a565b60405180910390a180600860006101000a81548165ffffffffffff021916908365ffffffffffff16021790555050565b60008163ffffffff16036103535760006040517ff1cfbf0500000000000000000000000000000000000000000000000000000000815260040161034a919061096e565b60405180910390fd5b7f7e3f7f0708a84de9203036abaa450dccc85ad5ff52f78c170f3edb55cf5e8828600860069054906101000a900463ffffffff16826040516103969291906109ca565b60405180910390a180600860066101000a81548163ffffffff021916908363ffffffff16021790555050565b7fccb45da8d5717e6c4544694297c4ba5cf151d455c9bb0ed4fc7a38411bc05461600754826040516103f59291906109f3565b60405180910390a18060078190555050565b600080829050601f8151111561045457826040517f305a27a900000000000000000000000000000000000000000000000000000000815260040161044b9190610aa1565b60405180910390fd5b80518161046090610af3565b60001c1760001b915050919050565b6000819050919050565b600080fd5b600073ffffffffffffffffffffffffffffffffffffffff82169050919050565b60006104a98261047e565b9050919050565b60006104bb8261049e565b9050919050565b6104cb816104b0565b81146104d657600080fd5b50565b6000815190506104e8816104c2565b92915050565b60006020828403121561050457610503610479565b5b6000610512848285016104d9565b91505092915050565b600081519050919050565b7f4e487b7100000000000000000000000000000000000000000000000000000000600052604160045260246000fd5b7f4e487b7100000000000000000000000000000000000000000000000000000000600052602260045260246000fd5b6000600282049050600182168061059c57607f821691505b6020821081036105af576105ae610555565b5b50919050565b60008190508160005260206000209050919050565b60006020601f8301049050919050565b600082821b905092915050565b6000600883026106177fffffffffffffffffffffffffffffffffffffffffffffffffffffffffffffffff826105da565b61062186836105da565b95508019841693508086168417925050509392505050565b6000819050919050565b6000819050919050565b600061066861066361065e84610639565b610643565b610639565b9050919050565b6000819050919050565b6106828361064d565b61069661068e8261066f565b8484546105e7565b825550505050565b600090565b6106ab61069e565b6106b6818484610679565b505050565b5b818110156106da576106cf6000826106a3565b6001810190506106bc565b5050565b601f82111561071f576106f0816105b5565b6106f9846105ca565b81016020851015610708578190505b61071c610714856105ca565b8301826106bb565b50505b505050565b600082821c905092915050565b600061074260001984600802610724565b1980831691505092915050565b600061075b8383610731565b9150826002028217905092915050565b6107748261051b565b67ffffffffffffffff81111561078d5761078c610526565b5b6107978254610584565b6107a28282856106de565b600060209050601f8311600181146107d557600084156107c3578287015190505b6107cd858261074f565b865550610835565b601f1984166107e3866105b5565b60005b8281101561080b578489015182556001820191506020850194506020810190506107e6565b868310156108285784890151610824601f891682610731565b8355505b6001600288020188555050505b505050505050565b6000819050919050565b6108508161083d565b82525050565b61085f81610639565b82525050565b61086e8161049e565b82525050565b600060a0820190506108896000830188610847565b6108966020830187610847565b6108a36040830186610847565b6108b06060830185610856565b6108bd6080830184610865565b9695505050505050565b600065ffffffffffff82169050919050565b60006108f46108ef6108ea846108c7565b610643565b610639565b9050919050565b610904816108d9565b82525050565b600060408201905061091f60008301856108fb565b61092c60208301846108fb565b9392505050565b6000819050919050565b600061095861095361094e84610933565b610643565b610639565b9050919050565b6109688161093d565b82525050565b6000602082019050610983600083018461095f565b92915050565b600063ffffffff82169050919050565b60006109b46109af6109aa84610989565b610643565b610639565b9050919050565b6109c481610999565b82525050565b60006040820190506109df60008301856109bb565b6109ec60208301846109bb565b9392505050565b6000604082019050610a086000830185610856565b610a156020830184610856565b9392505050565b600082825260208201905092915050565b60005b83811015610a4b578082015181840152602081019050610a30565b60008484015250505050565b6000601f19601f8301169050919050565b6000610a738261051b565b610a7d8185610a1c565b9350610a8d818560208601610a2d565b610a9681610a57565b840191505092915050565b60006020820190508181036000830152610abb8184610a68565b905092915050565b600081519050919050565b6000819050602082019050919050565b6000610aea825161083d565b80915050919050565b6000610afe82610ac3565b82610b0884610ace565b9050610b1381610ade565b92506020821015610b5357610b4e7fffffffffffffffffffffffffffffffffffffffffffffffffffffffffffffffff836020036008026105da565b831692505b5050919050565b60805160a05160c05160e05161010051610120516101405161016051615ccf610bbf6000396000611de501526000612b0501526000612aca01526000613605015260006135e401526000612d3001526000612d8601526000612daf0152615ccf6000f3fe6080604052600436106102555760003560e01c80637d5e81e211610139578063c01f9e37116100b6578063e540d01d1161007a578063e540d01d14610a61578063eb9019d414610a8a578063ece40cc114610ac7578063f23a6e6114610af0578063f8ce560a14610b2d578063fc0c546a14610b6a576102c8565b8063c01f9e3714610975578063c28bc2fa146109b2578063c59057e4146109ce578063dd4e2ba514610a0b578063deaaa7cc14610a36576102c8565b80639a802a6d116100fd5780639a802a6d14610856578063a9a9529414610893578063ab58fb8e146108d0578063b58131b01461090d578063bc197c8114610938576102c8565b80637d5e81e2146107435780637ecebe001461078057806384b0196e146107bd5780638ff262e3146107ee57806391ddadf41461082b576102c8565b80633e4f49e6116101d257806354fd4d501161019657806354fd4d50146105fb57806356781388146106265780635b8d0e0d146106635780635f398a14146106a057806379051887146106dd5780637b3c71d314610706576102c8565b80633e4f49e6146104da5780634385963214610517578063452115d6146105545780634bf5d7e914610591578063544ffc9c146105bc576102c8565b8063160cbed711610219578063160cbed7146103da5780632656227d146104175780632d63f693146104475780632fe3e261146104845780633932abb1146104af576102c8565b806301ffc9a7146102cd57806302a251a31461030a57806306fdde0314610335578063143489d014610360578063150b7a021461039d576102c8565b366102c8573073ffffffffffffffffffffffffffffffffffffffff16610279610b95565b73ffffffffffffffffffffffffffffffffffffffff16146102c6576040517fe90a651e00000000000000000000000000000000000000000000000000000000815260040160405180910390fd5b005b600080fd5b3480156102d957600080fd5b506102f460048036038101906102ef9190613a59565b610b9d565b6040516103019190613aa1565b60405180910390f35b34801561031657600080fd5b5061031f610c7f565b60405161032c9190613ad5565b60405180910390f35b34801561034157600080fd5b5061034a610c8e565b6040516103579190613b80565b60405180910390f35b34801561036c57600080fd5b5061038760048036038101906103829190613bce565b610d20565b6040516103949190613c3c565b60405180910390f35b3480156103a957600080fd5b506103c460048036038101906103bf9190613db8565b610d60565b6040516103d19190613e4a565b60405180910390f35b3480156103e657600080fd5b5061040160048036038101906103fc9190614107565b610de0565b60405161040e9190613ad5565b60405180910390f35b610431600480360381019061042c9190614107565b610edc565b60405161043e9190613ad5565b60405180910390f35b34801561045357600080fd5b5061046e60048036038101906104699190613bce565b6110bb565b60405161047b9190613ad5565b60405180910390f35b34801561049057600080fd5b506104996110f5565b6040516104a691906141d1565b60405180910390f35b3480156104bb57600080fd5b506104c4611119565b6040516104d19190613ad5565b60405180910390f35b3480156104e657600080fd5b5061050160048036038101906104fc9190613bce565b611128565b60405161050e9190614263565b60405180910390f35b34801561052357600080fd5b5061053e6004803603810190610539919061427e565b61128c565b60405161054b9190613aa1565b60405180910390f35b34801561056057600080fd5b5061057b60048036038101906105769190614107565b6112f7565b6040516105889190613ad5565b60405180910390f35b34801561059d57600080fd5b506105a66113b9565b6040516105b39190613b80565b60405180910390f35b3480156105c857600080fd5b506105e360048036038101906105de9190613bce565b611478565b6040516105f2939291906142be565b60405180910390f35b34801561060757600080fd5b506106106114b0565b60405161061d9190613b80565b60405180910390f35b34801561063257600080fd5b5061064d6004803603810190610648919061432e565b6114ed565b60405161065a9190613ad5565b60405180910390f35b34801561066f57600080fd5b5061068a600480360381019061068591906143c9565b61151e565b6040516106979190613ad5565b60405180910390f35b3480156106ac57600080fd5b506106c760048036038101906106c291906144b0565b61164f565b6040516106d49190613ad5565b60405180910390f35b3480156106e957600080fd5b5061070460048036038101906106ff9190614592565b6116b9565b005b34801561071257600080fd5b5061072d600480360381019061072891906145bf565b6116cd565b60405161073a9190613ad5565b60405180910390f35b34801561074f57600080fd5b5061076a600480360381019061076591906146d4565b611735565b6040516107779190613ad5565b60405180910390f35b34801561078c57600080fd5b506107a760048036038101906107a291906147ab565b61182f565b6040516107b49190613ad5565b60405180910390f35b3480156107c957600080fd5b506107d2611878565b6040516107e597969594939291906148d1565b60405180910390f35b3480156107fa57600080fd5b5061081560048036038101906108109190614955565b611922565b6040516108229190613ad5565b60405180910390f35b34801561083757600080fd5b506108406119f8565b60405161084d91906149e7565b60405180910390f35b34801561086257600080fd5b5061087d60048036038101906108789190614a02565b611a84565b60405161088a9190613ad5565b60405180910390f35b34801561089f57600080fd5b506108ba60048036038101906108b59190613bce565b611a9a565b6040516108c79190613aa1565b60405180910390f35b3480156108dc57600080fd5b506108f760048036038101906108f29190613bce565b611aa1565b6040516109049190613ad5565b60405180910390f35b34801561091957600080fd5b50610922611adb565b60405161092f9190613ad5565b60405180910390f35b34801561094457600080fd5b5061095f600480360381019061095a9190614a71565b611aea565b60405161096c9190613e4a565b60405180910390f35b34801561098157600080fd5b5061099c60048036038101906109979190613bce565b611b6b565b6040516109a99190613ad5565b60405180910390f35b6109cc60048036038101906109c79190614b96565b611bdc565b005b3480156109da57600080fd5b506109f560048036038101906109f09190614107565b611c69565b604051610a029190613ad5565b60405180910390f35b348015610a1757600080fd5b50610a20611ca5565b604051610a2d9190613b80565b60405180910390f35b348015610a4257600080fd5b50610a4b611ce2565b604051610a5891906141d1565b60405180910390f35b348015610a6d57600080fd5b50610a886004803603810190610a839190614c46565b611d06565b005b348015610a9657600080fd5b50610ab16004803603810190610aac9190614c73565b611d1a565b604051610abe9190613ad5565b60405180910390f35b348015610ad357600080fd5b50610aee6004803603810190610ae99190613bce565b611d36565b005b348015610afc57600080fd5b50610b176004803603810190610b129190614cb3565b611d4a565b604051610b249190613e4a565b60405180910390f35b348015610b3957600080fd5b50610b546004803603810190610b4f9190613bce565b611dcb565b604051610b619190613ad5565b60405180910390f35b348015610b7657600080fd5b50610b7f611de1565b604051610b8c9190614da9565b60405180910390f35b600030905090565b60007f65455a86000000000000000000000000000000000000000000000000000000007bffffffffffffffffffffffffffffffffffffffffffffffffffffffff1916827bffffffffffffffffffffffffffffffffffffffffffffffffffffffff19161480610c6857507f4e2312e0000000000000000000000000000000000000000000000000000000007bffffffffffffffffffffffffffffffffffffffffffffffffffffffff1916827bffffffffffffffffffffffffffffffffffffffffffffffffffffffff1916145b80610c785750610c7782611e09565b5b9050919050565b6000610c89611e73565b905090565b606060038054610c9d90614df3565b80601f0160208091040260200160405190810160405280929190818152602001828054610cc990614df3565b8015610d165780601f10610ceb57610100808354040283529160200191610d16565b820191906000526020600020905b815481529060010190602001808311610cf957829003601f168201915b5050505050905090565b60006004600083815260200190815260200160002060000160009054906101000a900473ffffffffffffffffffffffffffffffffffffffff169050919050565b60003073ffffffffffffffffffffffffffffffffffffffff16610d81610b95565b73ffffffffffffffffffffffffffffffffffffffff1614610dce576040517fe90a651e00000000000000000000000000000000000000000000000000000000815260040160405180910390fd5b63150b7a0260e01b9050949350505050565b600080610def86868686611c69565b9050610e0481610dff6004611e93565b611eb9565b506000610e148288888888611f26565b905060008165ffffffffffff1614610e9d57806004600084815260200190815260200160002060010160006101000a81548165ffffffffffff021916908365ffffffffffff1602179055507f9a2e42fd6722813d69113e7d0079d3d940171428df7373df9c7f7617cfda28928282604051610e90929190614e55565b60405180910390a1610ecf565b6040517f90884a4600000000000000000000000000000000000000000000000000000000815260040160405180910390fd5b8192505050949350505050565b600080610eeb86868686611c69565b9050610f0b81610efb6005611e93565b610f056004611e93565b17611eb9565b50600160046000838152602001908152602001600020600001601e6101000a81548160ff0219169083151502179055503073ffffffffffffffffffffffffffffffffffffffff16610f5a610b95565b73ffffffffffffffffffffffffffffffffffffffff16146110115760005b865181101561100f573073ffffffffffffffffffffffffffffffffffffffff16878281518110610fab57610faa614e7e565b5b602002602001015173ffffffffffffffffffffffffffffffffffffffff160361100457611003858281518110610fe457610fe3614e7e565b5b6020026020010151805190602001206005611f3190919063ffffffff16565b5b806001019050610f78565b505b61101e8187878787612030565b3073ffffffffffffffffffffffffffffffffffffffff1661103d610b95565b73ffffffffffffffffffffffffffffffffffffffff16141580156110685750611066600561211a565b155b1561107857611077600561218a565b5b7f712ae1383f79ac853f8d882153778e0260ef8f03b504e2866e0593e04d2b291f816040516110a79190613ad5565b60405180910390a180915050949350505050565b60006004600083815260200190815260200160002060000160149054906101000a900465ffffffffffff1665ffffffffffff169050919050565b7f3e83946653575f9a39005e1545185629e92736b7528ab20ca3816f315424a81181565b6000611123612205565b905090565b600080600460008481526020019081526020016000209050600081600001601e9054906101000a900460ff169050600082600001601f9054906101000a900460ff169050811561117e5760079350505050611287565b80156111905760029350505050611287565b600061119b866110bb565b9050600081036111e257856040517f6ad060750000000000000000000000000000000000000000000000000000000081526004016111d99190613ad5565b60405180910390fd5b60006111ec6119f8565b65ffffffffffff16905080821061120b57600095505050505050611287565b600061121688611b6b565b905081811061122e5760019650505050505050611287565b61123788612229565b1580611249575061124788612270565b155b1561125d5760039650505050505050611287565b600061126889611aa1565b0361127c5760049650505050505050611287565b600596505050505050505b919050565b60006009600084815260200190815260200160002060030160008373ffffffffffffffffffffffffffffffffffffffff1673ffffffffffffffffffffffffffffffffffffffff16815260200190815260200160002060009054906101000a900460ff16905092915050565b60008061130686868686611c69565b905061131b816113166000611e93565b611eb9565b5061132581610d20565b73ffffffffffffffffffffffffffffffffffffffff1661134361229b565b73ffffffffffffffffffffffffffffffffffffffff16146113a25761136661229b565b6040517f233d98e30000000000000000000000000000000000000000000000000000000081526004016113999190613c3c565b60405180910390fd5b6113ae868686866122a3565b915050949350505050565b60606113c3611de1565b73ffffffffffffffffffffffffffffffffffffffff16634bf5d7e96040518163ffffffff1660e01b8152600401600060405180830381865afa92505050801561142f57506040513d6000823e3d601f19601f8201168201806040525081019061142c9190614f1d565b60015b611470576040518060400160405280601d81526020017f6d6f64653d626c6f636b6e756d6265722666726f6d3d64656661756c740000008152509050611475565b809150505b90565b600080600080600960008681526020019081526020016000209050806000015481600101548260020154935093509350509193909250565b60606040518060400160405280600181526020017f3100000000000000000000000000000000000000000000000000000000000000815250905090565b6000806114f861229b565b90506115158482856040518060200160405280600081525061238a565b91505092915050565b6000806115ac876115a67f3e83946653575f9a39005e1545185629e92736b7528ab20ca3816f315424a8118c8c8c6115558e6123aa565b8d8d604051611565929190614f96565b60405180910390208c8051906020012060405160200161158b9796959493929190614fbe565b60405160208183030381529060405280519060200120612401565b8561241b565b9050806115f057866040517f94ab6c070000000000000000000000000000000000000000000000000000000081526004016115e79190613c3c565b60405180910390fd5b61164189888a89898080601f016020809104026020016040519081016040528093929190818152602001838380828437600081840152601f19601f82011690508083019250505050505050886124ca565b915050979650505050505050565b60008061165a61229b565b90506116ad87828888888080601f016020809104026020016040519081016040528093929190818152602001838380828437600081840152601f19601f82011690508083019250505050505050876124ca565b91505095945050505050565b6116c16125d8565b6116ca816126ce565b50565b6000806116d861229b565b905061172a86828787878080601f016020809104026020016040519081016040528093929190818152602001838380828437600081840152601f19601f8201169050808301925050505050505061238a565b915050949350505050565b60008061174061229b565b905061174c8184612743565b61178d57806040517fd9b395570000000000000000000000000000000000000000000000000000000081526004016117849190613c3c565b60405180910390fd5b6000611797611adb565b905060008111156118165760006117c98360016117b26119f8565b6117bc919061505c565b65ffffffffffff16611d1a565b905081811015611814578281836040517fc242ee1600000000000000000000000000000000000000000000000000000000815260040161180b93929190615096565b60405180910390fd5b505b611823878787878661282c565b92505050949350505050565b6000600260008373ffffffffffffffffffffffffffffffffffffffff1673ffffffffffffffffffffffffffffffffffffffff168152602001908152602001600020549050919050565b60006060806000806000606061188c612ac1565b611894612afc565b46306000801b600067ffffffffffffffff8111156118b5576118b4613c8d565b5b6040519080825280602002602001820160405280156118e35781602001602082028036833780820191505090505b507f0f00000000000000000000000000000000000000000000000000000000000000959493929190965096509650965096509650965090919293949596565b60008061198e846119887ff2aad550cf55f045cb27e9c559f9889fdfb6e6cdaa032301d6ea397784ae51d78989896119598b6123aa565b60405160200161196d9594939291906150cd565b60405160208183030381529060405280519060200120612401565b8561241b565b9050806119d257836040517f94ab6c070000000000000000000000000000000000000000000000000000000081526004016119c99190613c3c565b60405180910390fd5b6119ed8685876040518060200160405280600081525061238a565b915050949350505050565b6000611a02611de1565b73ffffffffffffffffffffffffffffffffffffffff166391ddadf46040518163ffffffff1660e01b8152600401602060405180830381865afa925050508015611a6957506040513d601f19601f82011682018060405250810190611a669190615135565b60015b611a7c57611a75612b37565b9050611a81565b809150505b90565b6000611a91848484612b47565b90509392505050565b6000919050565b60006004600083815260200190815260200160002060010160009054906101000a900465ffffffffffff1665ffffffffffff169050919050565b6000611ae5612bd5565b905090565b60003073ffffffffffffffffffffffffffffffffffffffff16611b0b610b95565b73ffffffffffffffffffffffffffffffffffffffff1614611b58576040517fe90a651e00000000000000000000000000000000000000000000000000000000815260040160405180910390fd5b63bc197c8160e01b905095945050505050565b600060046000838152602001908152602001600020600001601a9054906101000a900463ffffffff1663ffffffff166004600084815260200190815260200160002060000160149054906101000a900465ffffffffffff16611bcd9190615162565b65ffffffffffff169050919050565b611be46125d8565b6000808573ffffffffffffffffffffffffffffffffffffffff16858585604051611c0f929190614f96565b60006040518083038185875af1925050503d8060008114611c4c576040519150601f19603f3d011682016040523d82523d6000602084013e611c51565b606091505b5091509150611c608282612bdf565b50505050505050565b600084848484604051602001611c829493929190615371565b6040516020818303038152906040528051906020012060001c9050949350505050565b60606040518060400160405280602081526020017f737570706f72743d627261766f2671756f72756d3d666f722c6162737461696e815250905090565b7ff2aad550cf55f045cb27e9c559f9889fdfb6e6cdaa032301d6ea397784ae51d781565b611d0e6125d8565b611d1781612c03565b50565b6000611d2e8383611d29612cbe565b612b47565b905092915050565b611d3e6125d8565b611d4781612cd5565b50565b60003073ffffffffffffffffffffffffffffffffffffffff16611d6b610b95565b73ffffffffffffffffffffffffffffffffffffffff1614611db8576040517fe90a651e00000000000000000000000000000000000000000000000000000000815260040160405180910390fd5b63f23a6e6160e01b905095945050505050565b60006b0cecb8f27f4200f3a00000009050919050565b60007f0000000000000000000000000000000000000000000000000000000000000000905090565b60007f01ffc9a7000000000000000000000000000000000000000000000000000000007bffffffffffffffffffffffffffffffffffffffffffffffffffffffff1916827bffffffffffffffffffffffffffffffffffffffffffffffffffffffff1916149050919050565b6000600860069054906101000a900463ffffffff1663ffffffff16905090565b6000816007811115611ea857611ea76141ec565b5b60ff166001901b60001b9050919050565b600080611ec584611128565b90506000801b83611ed583611e93565b1603611f1c578381846040517f31b75e4d000000000000000000000000000000000000000000000000000000008152600401611f13939291906153cb565b60405180910390fd5b8091505092915050565b600095945050505050565b60008260000160109054906101000a90046fffffffffffffffffffffffffffffffff1690508260000160009054906101000a90046fffffffffffffffffffffffffffffffff166fffffffffffffffffffffffffffffffff16600182016fffffffffffffffffffffffffffffffff1603611faf57611fae6041612d1a565b5b81836001016000836fffffffffffffffffffffffffffffffff166fffffffffffffffffffffffffffffffff16815260200190815260200160002081905550600181018360000160106101000a8154816fffffffffffffffffffffffffffffffff02191690836fffffffffffffffffffffffffffffffff160217905550505050565b60005b84518110156121125760008086838151811061205257612051614e7e565b5b602002602001015173ffffffffffffffffffffffffffffffffffffffff1686848151811061208357612082614e7e565b5b602002602001015186858151811061209e5761209d614e7e565b5b60200260200101516040516120b39190615433565b60006040518083038185875af1925050503d80600081146120f0576040519150601f19603f3d011682016040523d82523d6000602084013e6120f5565b606091505b50915091506121048282612bdf565b505050806001019050612033565b505050505050565b60008160000160009054906101000a90046fffffffffffffffffffffffffffffffff166fffffffffffffffffffffffffffffffff168260000160109054906101000a90046fffffffffffffffffffffffffffffffff166fffffffffffffffffffffffffffffffff16149050919050565b60008160000160006101000a8154816fffffffffffffffffffffffffffffffff02191690836fffffffffffffffffffffffffffffffff16021790555060008160000160106101000a8154816fffffffffffffffffffffffffffffffff02191690836fffffffffffffffffffffffffffffffff16021790555050565b6000600860009054906101000a900465ffffffffffff1665ffffffffffff16905090565b60008060096000848152602001908152602001600020905080600201548160010154612255919061544a565b612266612261856110bb565b611dcb565b1115915050919050565b6000806009600084815260200190815260200160002090508060000154816001015411915050919050565b600033905090565b6000806122b286868686611c69565b9050612317816122c26007611e93565b6122cc6006611e93565b6122d66002611e93565b6001806007808111156122ec576122eb6141ec565b5b6122f6919061547e565b600261230291906155e6565b61230c9190615631565b60001b181818611eb9565b50600160046000838152602001908152602001600020600001601f6101000a81548160ff0219169083151502179055507f789cf55be980739dad1d0699b93b58e806b51c9d96619bfa8fe0a28abaa7b30c816040516123769190613ad5565b60405180910390a180915050949350505050565b60006123a08585858561239b612cbe565b6124ca565b9050949350505050565b6000600260008373ffffffffffffffffffffffffffffffffffffffff1673ffffffffffffffffffffffffffffffffffffffff1681526020019081526020016000206000815480929190600101919050559050919050565b600061241461240e612d2c565b83612de3565b9050919050565b6000808473ffffffffffffffffffffffffffffffffffffffff163b036124b5576000806124488585612e24565b509150915060006003811115612461576124606141ec565b5b816003811115612474576124736141ec565b5b1480156124ac57508573ffffffffffffffffffffffffffffffffffffffff168273ffffffffffffffffffffffffffffffffffffffff16145b925050506124c3565b6124c0848484612e80565b90505b9392505050565b60006124df866124da6001611e93565b611eb9565b5060006124f5866124ef896110bb565b85612b47565b905060006125068888888588612fa4565b9050600084510361256a578673ffffffffffffffffffffffffffffffffffffffff167fb8e138887d0aa13bab447e82de9d5c1777041ecd21ca36ba824ff1e6c07ddda48988848960405161255d9493929190615665565b60405180910390a26125c1565b8673ffffffffffffffffffffffffffffffffffffffff167fe2babfbac5889a709b63bb7f598b324e08bc5a4fb9ec647fb3cbc9ec07eb871289888489896040516125b89594939291906156fb565b60405180910390a25b6125ca886131a7565b809250505095945050505050565b6125e061229b565b73ffffffffffffffffffffffffffffffffffffffff166125fe610b95565b73ffffffffffffffffffffffffffffffffffffffff161461265d5761262161229b565b6040517f47096e470000000000000000000000000000000000000000000000000000000081526004016126549190613c3c565b60405180910390fd5b3073ffffffffffffffffffffffffffffffffffffffff1661267c610b95565b73ffffffffffffffffffffffffffffffffffffffff16146126cc5760006126a16131aa565b6040516126af929190614f96565b604051809103902090505b806126c560056131b7565b036126ba57505b565b7fc565b045403dc03c2eea82b81a0465edad9e2e7fc4d97e11421c209da93d7a93600860009054906101000a900465ffffffffffff168260405161271392919061575c565b60405180910390a180600860006101000a81548165ffffffffffff021916908365ffffffffffff16021790555050565b60008082519050603481101561275d576001915050612826565b600061276c84603484036132f0565b90507f2370726f706f7365723d0000000000000000000000000000000000000000000075ffffffffffffffffffffffffffffffffffffffffffff19168175ffffffffffffffffffffffffffffffffffffffffffff1916146127d257600192505050612826565b6000806127e386602a860386613301565b9150915081158061281f57508673ffffffffffffffffffffffffffffffffffffffff168173ffffffffffffffffffffffffffffffffffffffff16145b9450505050505b92915050565b60006128418686868680519060200120611c69565b90508451865114158061285657508351865114155b80612862575060008651145b156128ab578551845186516040517f447b05d00000000000000000000000000000000000000000000000000000000081526004016128a2939291906142be565b60405180910390fd5b60006004600083815260200190815260200160002060000160149054906101000a900465ffffffffffff1665ffffffffffff161461292f57806128ed82611128565b6000801b6040517f31b75e4d000000000000000000000000000000000000000000000000000000008152600401612926939291906153cb565b60405180910390fd5b6000612939611119565b6129416119f8565b65ffffffffffff16612953919061544a565b9050600061295f610c7f565b90506000600460008581526020019081526020016000209050848160000160006101000a81548173ffffffffffffffffffffffffffffffffffffffff021916908373ffffffffffffffffffffffffffffffffffffffff1602179055506129c483613418565b8160000160146101000a81548165ffffffffffff021916908365ffffffffffff1602179055506129f382613472565b81600001601a6101000a81548163ffffffff021916908363ffffffff1602179055507f7d84a6263ae0d98d3329bd7b46bb4e8d6f98cd35a7adb45c274c8b7fd5ebd5e084868b8b8d5167ffffffffffffffff811115612a5557612a54613c8d565b5b604051908082528060200260200182016040528015612a8857816020015b6060815260200190600190039081612a735790505b508c89898b612a97919061544a565b8e604051612aad99989796959493929190615891565b60405180910390a150505095945050505050565b6060612af760007f00000000000000000000000000000000000000000000000000000000000000006134ca90919063ffffffff16565b905090565b6060612b3260017f00000000000000000000000000000000000000000000000000000000000000006134ca90919063ffffffff16565b905090565b6000612b4243613418565b905090565b6000612b51611de1565b73ffffffffffffffffffffffffffffffffffffffff16633a46b1a885856040518363ffffffff1660e01b8152600401612b8b929190615941565b602060405180830381865afa158015612ba8573d6000803e3d6000fd5b505050506040513d601f19601f82011682018060405250810190612bcc919061597f565b90509392505050565b6000600754905090565b606082612bf457612bef8261357a565b612bfc565b819050612bfd565b5b92915050565b60008163ffffffff1603612c4f5760006040517ff1cfbf05000000000000000000000000000000000000000000000000000000008152600401612c4691906159e7565b60405180910390fd5b7f7e3f7f0708a84de9203036abaa450dccc85ad5ff52f78c170f3edb55cf5e8828600860069054906101000a900463ffffffff1682604051612c92929190615a33565b60405180910390a180600860066101000a81548163ffffffff021916908363ffffffff16021790555050565b606060405180602001604052806000815250905090565b7fccb45da8d5717e6c4544694297c4ba5cf151d455c9bb0ed4fc7a38411bc0546160075482604051612d08929190615a5c565b60405180910390a18060078190555050565b634e487b71600052806020526024601cfd5b60007f000000000000000000000000000000000000000000000000000000000000000073ffffffffffffffffffffffffffffffffffffffff163073ffffffffffffffffffffffffffffffffffffffff16148015612da857507f000000000000000000000000000000000000000000000000000000000000000046145b15612dd5577f00000000000000000000000000000000000000000000000000000000000000009050612de0565b612ddd6135bf565b90505b90565b60006040517f190100000000000000000000000000000000000000000000000000000000000081528360028201528260228201526042812091505092915050565b60008060006041845103612e695760008060006020870151925060408701519150606087015160001a9050612e5b88828585613655565b955095509550505050612e79565b60006002855160001b9250925092505b9250925092565b60008060008573ffffffffffffffffffffffffffffffffffffffff168585604051602401612eaf929190615a85565b604051602081830303815290604052631626ba7e60e01b6020820180517bffffffffffffffffffffffffffffffffffffffffffffffffffffffff8381831617835250505050604051612f019190615433565b600060405180830381855afa9150503d8060008114612f3c576040519150601f19603f3d011682016040523d82523d6000602084013e612f41565b606091505b5091509150818015612f5557506020815110155b8015612f995750631626ba7e60e01b7bffffffffffffffffffffffffffffffffffffffffffffffffffffffff191681806020019051810190612f979190615aca565b145b925050509392505050565b6000806009600088815260200190815260200160002090508060030160008773ffffffffffffffffffffffffffffffffffffffff1673ffffffffffffffffffffffffffffffffffffffff16815260200190815260200160002060009054906101000a900460ff161561304d57856040517f71c6af490000000000000000000000000000000000000000000000000000000081526004016130449190613c3c565b60405180910390fd5b60018160030160008873ffffffffffffffffffffffffffffffffffffffff1673ffffffffffffffffffffffffffffffffffffffff16815260200190815260200160002060006101000a81548160ff021916908315150217905550600060028111156130bb576130ba6141ec565b5b60ff168560ff16036130e757838160000160008282546130db919061544a565b9250508190555061319a565b600160028111156130fb576130fa6141ec565b5b60ff168560ff1603613127578381600101600082825461311b919061544a565b92505081905550613199565b60028081111561313a576131396141ec565b5b60ff168560ff1603613166578381600201600082825461315a919061544a565b92505081905550613198565b6040517f06b337c200000000000000000000000000000000000000000000000000000000815260040160405180910390fd5b5b5b8391505095945050505050565b50565b3660008036915091509091565b6000808260000160009054906101000a90046fffffffffffffffffffffffffffffffff1690508260000160109054906101000a90046fffffffffffffffffffffffffffffffff166fffffffffffffffffffffffffffffffff16816fffffffffffffffffffffffffffffffff1603613233576132326031612d1a565b5b826001016000826fffffffffffffffffffffffffffffffff166fffffffffffffffffffffffffffffffff168152602001908152602001600020549150826001016000826fffffffffffffffffffffffffffffffff166fffffffffffffffffffffffffffffffff16815260200190815260200160002060009055600181018360000160006101000a8154816fffffffffffffffffffffffffffffffff02191690836fffffffffffffffffffffffffffffffff16021790555050919050565b600081602001830151905092915050565b600080845183118061331257508284115b156133235760008091509150613410565b6000600185613332919061544a565b841180156133aa57507f30780000000000000000000000000000000000000000000000000000000000007dffffffffffffffffffffffffffffffffffffffffffffffffffffffffffff19166133878787613749565b7dffffffffffffffffffffffffffffffffffffffffffffffffffffffffffff1916145b9050600060026133bb83151561375a565b6133c59190615af7565b60286133d1919061544a565b90508086866133e09190615631565b03613406576000806133f3898989613766565b9150915081819550955050505050613410565b6000809350935050505b935093915050565b600065ffffffffffff801682111561346a576030826040517f6dfcc650000000000000000000000000000000000000000000000000000000008152600401613461929190615b74565b60405180910390fd5b819050919050565b600063ffffffff80168211156134c2576020826040517f6dfcc6500000000000000000000000000000000000000000000000000000000081526004016134b9929190615bd8565b60405180910390fd5b819050919050565b606060ff60001b83146134e7576134e083613898565b9050613574565b8180546134f390614df3565b80601f016020809104026020016040519081016040528092919081815260200182805461351f90614df3565b801561356c5780601f106135415761010080835404028352916020019161356c565b820191906000526020600020905b81548152906001019060200180831161354f57829003601f168201915b505050505090505b92915050565b60008151111561358d5780518082602001fd5b6040517fd6bda27500000000000000000000000000000000000000000000000000000000815260040160405180910390fd5b60007f8b73c3c69bb8fe3d512ecc4cf759cc79239f7b179b0ffacaa9a75d522b39400f7f00000000000000000000000000000000000000000000000000000000000000007f0000000000000000000000000000000000000000000000000000000000000000463060405160200161363a959493929190615c01565b60405160208183030381529060405280519060200120905090565b60008060007f7fffffffffffffffffffffffffffffff5d576e7357a4501ddfe92f46681b20a08460001c111561369557600060038592509250925061373f565b6000600188888888604051600081526020016040526040516136ba9493929190615c54565b6020604051602081039080840390855afa1580156136dc573d6000803e3d6000fd5b505050602060405103519050600073ffffffffffffffffffffffffffffffffffffffff168173ffffffffffffffffffffffffffffffffffffffff160361373057600060016000801b9350935093505061373f565b8060008060001b935093509350505b9450945094915050565b600081602001830151905092915050565b60008115159050919050565b6000806000859050600060018661377d919061544a565b851180156137f557507f30780000000000000000000000000000000000000000000000000000000000007dffffffffffffffffffffffffffffffffffffffffffffffffffffffffffff19166137d28388613749565b7dffffffffffffffffffffffffffffffffffffffffffffffffffffffffffff1916145b90506000600261380683151561375a565b6138109190615af7565b90506000808289613821919061544a565b90505b8781101561388357600061384061383b8784613749565b61390c565b9050600f8160ff1611156138605760008097509750505050505050613890565b60108361386d9190615af7565b92508060ff168301925050806001019050613824565b5060018195509550505050505b935093915050565b606060006138a58361399d565b90506000602067ffffffffffffffff8111156138c4576138c3613c8d565b5b6040519080825280601f01601f1916602001820160405280156138f65781602001600182028036833780820191505090505b5090508181528360208201528092505050919050565b6000808260f81c9050602f8160ff1611801561392b5750603a8160ff16105b1561393b57603081039050613993565b60608160ff16118015613951575060678160ff16105b1561396157605781039050613992565b60408160ff16118015613977575060478160ff16105b1561398757603781039050613991565b60ff915050613998565b5b5b809150505b919050565b60008060ff8360001c169050601f8111156139e4576040517fb3512b0c00000000000000000000000000000000000000000000000000000000815260040160405180910390fd5b80915050919050565b6000604051905090565b600080fd5b600080fd5b60007fffffffff0000000000000000000000000000000000000000000000000000000082169050919050565b613a3681613a01565b8114613a4157600080fd5b50565b600081359050613a5381613a2d565b92915050565b600060208284031215613a6f57613a6e6139f7565b5b6000613a7d84828501613a44565b91505092915050565b60008115159050919050565b613a9b81613a86565b82525050565b6000602082019050613ab66000830184613a92565b92915050565b6000819050919050565b613acf81613abc565b82525050565b6000602082019050613aea6000830184613ac6565b92915050565b600081519050919050565b600082825260208201905092915050565b60005b83811015613b2a578082015181840152602081019050613b0f565b60008484015250505050565b6000601f19601f8301169050919050565b6000613b5282613af0565b613b5c8185613afb565b9350613b6c818560208601613b0c565b613b7581613b36565b840191505092915050565b60006020820190508181036000830152613b9a8184613b47565b905092915050565b613bab81613abc565b8114613bb657600080fd5b50565b600081359050613bc881613ba2565b92915050565b600060208284031215613be457613be36139f7565b5b6000613bf284828501613bb9565b91505092915050565b600073ffffffffffffffffffffffffffffffffffffffff82169050919050565b6000613c2682613bfb565b9050919050565b613c3681613c1b565b82525050565b6000602082019050613c516000830184613c2d565b92915050565b613c6081613c1b565b8114613c6b57600080fd5b50565b600081359050613c7d81613c57565b92915050565b600080fd5b600080fd5b7f4e487b7100000000000000000000000000000000000000000000000000000000600052604160045260246000fd5b613cc582613b36565b810181811067ffffffffffffffff82111715613ce457613ce3613c8d565b5b80604052505050565b6000613cf76139ed565b9050613d038282613cbc565b919050565b600067ffffffffffffffff821115613d2357613d22613c8d565b5b613d2c82613b36565b9050602081019050919050565b82818337600083830152505050565b6000613d5b613d5684613d08565b613ced565b905082815260208101848484011115613d7757613d76613c88565b5b613d82848285613d39565b509392505050565b600082601f830112613d9f57613d9e613c83565b5b8135613daf848260208601613d48565b91505092915050565b60008060008060808587031215613dd257613dd16139f7565b5b6000613de087828801613c6e565b9450506020613df187828801613c6e565b9350506040613e0287828801613bb9565b925050606085013567ffffffffffffffff811115613e2357613e226139fc565b5b613e2f87828801613d8a565b91505092959194509250565b613e4481613a01565b82525050565b6000602082019050613e5f6000830184613e3b565b92915050565b600067ffffffffffffffff821115613e8057613e7f613c8d565b5b602082029050602081019050919050565b600080fd5b6000613ea9613ea484613e65565b613ced565b90508083825260208201905060208402830185811115613ecc57613ecb613e91565b5b835b81811015613ef55780613ee18882613c6e565b845260208401935050602081019050613ece565b5050509392505050565b600082601f830112613f1457613f13613c83565b5b8135613f24848260208601613e96565b91505092915050565b600067ffffffffffffffff821115613f4857613f47613c8d565b5b602082029050602081019050919050565b6000613f6c613f6784613f2d565b613ced565b90508083825260208201905060208402830185811115613f8f57613f8e613e91565b5b835b81811015613fb85780613fa48882613bb9565b845260208401935050602081019050613f91565b5050509392505050565b600082601f830112613fd757613fd6613c83565b5b8135613fe7848260208601613f59565b91505092915050565b600067ffffffffffffffff82111561400b5761400a613c8d565b5b602082029050602081019050919050565b600061402f61402a84613ff0565b613ced565b9050808382526020820190506020840283018581111561405257614051613e91565b5b835b8181101561409957803567ffffffffffffffff81111561407757614076613c83565b5b8086016140848982613d8a565b85526020850194505050602081019050614054565b5050509392505050565b600082601f8301126140b8576140b7613c83565b5b81356140c884826020860161401c565b91505092915050565b6000819050919050565b6140e4816140d1565b81146140ef57600080fd5b50565b600081359050614101816140db565b92915050565b60008060008060808587031215614121576141206139f7565b5b600085013567ffffffffffffffff81111561413f5761413e6139fc565b5b61414b87828801613eff565b945050602085013567ffffffffffffffff81111561416c5761416b6139fc565b5b61417887828801613fc2565b935050604085013567ffffffffffffffff811115614199576141986139fc565b5b6141a5878288016140a3565b92505060606141b6878288016140f2565b91505092959194509250565b6141cb816140d1565b82525050565b60006020820190506141e660008301846141c2565b92915050565b7f4e487b7100000000000000000000000000000000000000000000000000000000600052602160045260246000fd5b6008811061422c5761422b6141ec565b5b50565b600081905061423d8261421b565b919050565b600061424d8261422f565b9050919050565b61425d81614242565b82525050565b60006020820190506142786000830184614254565b92915050565b60008060408385031215614295576142946139f7565b5b60006142a385828601613bb9565b92505060206142b485828601613c6e565b9150509250929050565b60006060820190506142d36000830186613ac6565b6142e06020830185613ac6565b6142ed6040830184613ac6565b949350505050565b600060ff82169050919050565b61430b816142f5565b811461431657600080fd5b50565b60008135905061432881614302565b92915050565b60008060408385031215614345576143446139f7565b5b600061435385828601613bb9565b925050602061436485828601614319565b9150509250929050565b600080fd5b60008083601f84011261438957614388613c83565b5b8235905067ffffffffffffffff8111156143a6576143a561436e565b5b6020830191508360018202830111156143c2576143c1613e91565b5b9250929050565b600080600080600080600060c0888a0312156143e8576143e76139f7565b5b60006143f68a828b01613bb9565b97505060206144078a828b01614319565b96505060406144188a828b01613c6e565b955050606088013567ffffffffffffffff811115614439576144386139fc565b5b6144458a828b01614373565b9450945050608088013567ffffffffffffffff811115614468576144676139fc565b5b6144748a828b01613d8a565b92505060a088013567ffffffffffffffff811115614495576144946139fc565b5b6144a18a828b01613d8a565b91505092959891949750929550565b6000806000806000608086880312156144cc576144cb6139f7565b5b60006144da88828901613bb9565b95505060206144eb88828901614319565b945050604086013567ffffffffffffffff81111561450c5761450b6139fc565b5b61451888828901614373565b9350935050606086013567ffffffffffffffff81111561453b5761453a6139fc565b5b61454788828901613d8a565b9150509295509295909350565b600065ffffffffffff82169050919050565b61456f81614554565b811461457a57600080fd5b50565b60008135905061458c81614566565b92915050565b6000602082840312156145a8576145a76139f7565b5b60006145b68482850161457d565b91505092915050565b600080600080606085870312156145d9576145d86139f7565b5b60006145e787828801613bb9565b94505060206145f887828801614319565b935050604085013567ffffffffffffffff811115614619576146186139fc565b5b61462587828801614373565b925092505092959194509250565b600067ffffffffffffffff82111561464e5761464d613c8d565b5b61465782613b36565b9050602081019050919050565b600061467761467284614633565b613ced565b90508281526020810184848401111561469357614692613c88565b5b61469e848285613d39565b509392505050565b600082601f8301126146bb576146ba613c83565b5b81356146cb848260208601614664565b91505092915050565b600080600080608085870312156146ee576146ed6139f7565b5b600085013567ffffffffffffffff81111561470c5761470b6139fc565b5b61471887828801613eff565b945050602085013567ffffffffffffffff811115614739576147386139fc565b5b61474587828801613fc2565b935050604085013567ffffffffffffffff811115614766576147656139fc565b5b614772878288016140a3565b925050606085013567ffffffffffffffff811115614793576147926139fc565b5b61479f878288016146a6565b91505092959194509250565b6000602082840312156147c1576147c06139f7565b5b60006147cf84828501613c6e565b91505092915050565b60007fff0000000000000000000000000000000000000000000000000000000000000082169050919050565b61480d816147d8565b82525050565b600081519050919050565b600082825260208201905092915050565b6000819050602082019050919050565b61484881613abc565b82525050565b600061485a838361483f565b60208301905092915050565b6000602082019050919050565b600061487e82614813565b614888818561481e565b93506148938361482f565b8060005b838110156148c45781516148ab888261484e565b97506148b683614866565b925050600181019050614897565b5085935050505092915050565b600060e0820190506148e6600083018a614804565b81810360208301526148f88189613b47565b9050818103604083015261490c8188613b47565b905061491b6060830187613ac6565b6149286080830186613c2d565b61493560a08301856141c2565b81810360c08301526149478184614873565b905098975050505050505050565b6000806000806080858703121561496f5761496e6139f7565b5b600061497d87828801613bb9565b945050602061498e87828801614319565b935050604061499f87828801613c6e565b925050606085013567ffffffffffffffff8111156149c0576149bf6139fc565b5b6149cc87828801613d8a565b91505092959194509250565b6149e181614554565b82525050565b60006020820190506149fc60008301846149d8565b92915050565b600080600060608486031215614a1b57614a1a6139f7565b5b6000614a2986828701613c6e565b9350506020614a3a86828701613bb9565b925050604084013567ffffffffffffffff811115614a5b57614a5a6139fc565b5b614a6786828701613d8a565b9150509250925092565b600080600080600060a08688031215614a8d57614a8c6139f7565b5b6000614a9b88828901613c6e565b9550506020614aac88828901613c6e565b945050604086013567ffffffffffffffff811115614acd57614acc6139fc565b5b614ad988828901613fc2565b935050606086013567ffffffffffffffff811115614afa57614af96139fc565b5b614b0688828901613fc2565b925050608086013567ffffffffffffffff811115614b2757614b266139fc565b5b614b3388828901613d8a565b9150509295509295909350565b60008083601f840112614b5657614b55613c83565b5b8235905067ffffffffffffffff811115614b7357614b7261436e565b5b602083019150836001820283011115614b8f57614b8e613e91565b5b9250929050565b60008060008060608587031215614bb057614baf6139f7565b5b6000614bbe87828801613c6e565b9450506020614bcf87828801613bb9565b935050604085013567ffffffffffffffff811115614bf057614bef6139fc565b5b614bfc87828801614b40565b925092505092959194509250565b600063ffffffff82169050919050565b614c2381614c0a565b8114614c2e57600080fd5b50565b600081359050614c4081614c1a565b92915050565b600060208284031215614c5c57614c5b6139f7565b5b6000614c6a84828501614c31565b91505092915050565b60008060408385031215614c8a57614c896139f7565b5b6000614c9885828601613c6e565b9250506020614ca985828601613bb9565b9150509250929050565b600080600080600060a08688031215614ccf57614cce6139f7565b5b6000614cdd88828901613c6e565b9550506020614cee88828901613c6e565b9450506040614cff88828901613bb9565b9350506060614d1088828901613bb9565b925050608086013567ffffffffffffffff811115614d3157614d306139fc565b5b614d3d88828901613d8a565b9150509295509295909350565b6000819050919050565b6000614d6f614d6a614d6584613bfb565b614d4a565b613bfb565b9050919050565b6000614d8182614d54565b9050919050565b6000614d9382614d76565b9050919050565b614da381614d88565b82525050565b6000602082019050614dbe6000830184614d9a565b92915050565b7f4e487b7100000000000000000000000000000000000000000000000000000000600052602260045260246000fd5b60006002820490506001821680614e0b57607f821691505b602082108103614e1e57614e1d614dc4565b5b50919050565b6000614e3f614e3a614e3584614554565b614d4a565b613abc565b9050919050565b614e4f81614e24565b82525050565b6000604082019050614e6a6000830185613ac6565b614e776020830184614e46565b9392505050565b7f4e487b7100000000000000000000000000000000000000000000000000000000600052603260045260246000fd5b6000614ec0614ebb84614633565b613ced565b905082815260208101848484011115614edc57614edb613c88565b5b614ee7848285613b0c565b509392505050565b600082601f830112614f0457614f03613c83565b5b8151614f14848260208601614ead565b91505092915050565b600060208284031215614f3357614f326139f7565b5b600082015167ffffffffffffffff811115614f5157614f506139fc565b5b614f5d84828501614eef565b91505092915050565b600081905092915050565b6000614f7d8385614f66565b9350614f8a838584613d39565b82840190509392505050565b6000614fa3828486614f71565b91508190509392505050565b614fb8816142f5565b82525050565b600060e082019050614fd3600083018a6141c2565b614fe06020830189613ac6565b614fed6040830188614faf565b614ffa6060830187613c2d565b6150076080830186613ac6565b61501460a08301856141c2565b61502160c08301846141c2565b98975050505050505050565b7f4e487b7100000000000000000000000000000000000000000000000000000000600052601160045260246000fd5b600061506782614554565b915061507283614554565b9250828203905065ffffffffffff8111156150905761508f61502d565b5b92915050565b60006060820190506150ab6000830186613c2d565b6150b86020830185613ac6565b6150c56040830184613ac6565b949350505050565b600060a0820190506150e260008301886141c2565b6150ef6020830187613ac6565b6150fc6040830186614faf565b6151096060830185613c2d565b6151166080830184613ac6565b9695505050505050565b60008151905061512f81614566565b92915050565b60006020828403121561514b5761514a6139f7565b5b600061515984828501615120565b91505092915050565b600061516d82614554565b915061517883614554565b9250828201905065ffffffffffff8111156151965761519561502d565b5b92915050565b600081519050919050565b600082825260208201905092915050565b6000819050602082019050919050565b6151d181613c1b565b82525050565b60006151e383836151c8565b60208301905092915050565b6000602082019050919050565b60006152078261519c565b61521181856151a7565b935061521c836151b8565b8060005b8381101561524d57815161523488826151d7565b975061523f836151ef565b925050600181019050615220565b5085935050505092915050565b600081519050919050565b600082825260208201905092915050565b6000819050602082019050919050565b600081519050919050565b600082825260208201905092915050565b60006152ad82615286565b6152b78185615291565b93506152c7818560208601613b0c565b6152d081613b36565b840191505092915050565b60006152e783836152a2565b905092915050565b6000602082019050919050565b60006153078261525a565b6153118185615265565b93508360208202850161532385615276565b8060005b8581101561535f578484038952815161534085826152db565b945061534b836152ef565b925060208a01995050600181019050615327565b50829750879550505050505092915050565b6000608082019050818103600083015261538b81876151fc565b9050818103602083015261539f8186614873565b905081810360408301526153b381856152fc565b90506153c260608301846141c2565b95945050505050565b60006060820190506153e06000830186613ac6565b6153ed6020830185614254565b6153fa60408301846141c2565b949350505050565b600061540d82615286565b6154178185614f66565b9350615427818560208601613b0c565b80840191505092915050565b600061543f8284615402565b915081905092915050565b600061545582613abc565b915061546083613abc565b92508282019050808211156154785761547761502d565b5b92915050565b6000615489826142f5565b9150615494836142f5565b9250828201905060ff8111156154ad576154ac61502d565b5b92915050565b60008160011c9050919050565b6000808291508390505b600185111561550a578086048111156154e6576154e561502d565b5b60018516156154f55780820291505b8081029050615503856154b3565b94506154ca565b94509492505050565b60008261552357600190506155df565b8161553157600090506155df565b8160018114615547576002811461555157615580565b60019150506155df565b60ff8411156155635761556261502d565b5b8360020a91508482111561557a5761557961502d565b5b506155df565b5060208310610133831016604e8410600b84101617156155b55782820a9050838111156155b0576155af61502d565b5b6155df565b6155c284848460016154c0565b925090508184048111156155d9576155d861502d565b5b81810290505b9392505050565b60006155f182613abc565b91506155fc836142f5565b92506156297fffffffffffffffffffffffffffffffffffffffffffffffffffffffffffffffff8484615513565b905092915050565b600061563c82613abc565b915061564783613abc565b925082820390508181111561565f5761565e61502d565b5b92915050565b600060808201905061567a6000830187613ac6565b6156876020830186614faf565b6156946040830185613ac6565b81810360608301526156a68184613b47565b905095945050505050565b600082825260208201905092915050565b60006156cd82615286565b6156d781856156b1565b93506156e7818560208601613b0c565b6156f081613b36565b840191505092915050565b600060a0820190506157106000830188613ac6565b61571d6020830187614faf565b61572a6040830186613ac6565b818103606083015261573c8185613b47565b9050818103608083015261575081846156c2565b90509695505050505050565b60006040820190506157716000830185614e46565b61577e6020830184614e46565b9392505050565b600081519050919050565b600082825260208201905092915050565b6000819050602082019050919050565b600082825260208201905092915050565b60006157cd82613af0565b6157d781856157b1565b93506157e7818560208601613b0c565b6157f081613b36565b840191505092915050565b600061580783836157c2565b905092915050565b6000602082019050919050565b600061582782615785565b6158318185615790565b935083602082028501615843856157a1565b8060005b8581101561587f578484038952815161586085826157fb565b945061586b8361580f565b925060208a01995050600181019050615847565b50829750879550505050505092915050565b6000610120820190506158a7600083018c613ac6565b6158b4602083018b613c2d565b81810360408301526158c6818a6151fc565b905081810360608301526158da8189614873565b905081810360808301526158ee818861581c565b905081810360a083015261590281876152fc565b905061591160c0830186613ac6565b61591e60e0830185613ac6565b8181036101008301526159318184613b47565b90509a9950505050505050505050565b60006040820190506159566000830185613c2d565b6159636020830184613ac6565b9392505050565b60008151905061597981613ba2565b92915050565b600060208284031215615995576159946139f7565b5b60006159a38482850161596a565b91505092915050565b6000819050919050565b60006159d16159cc6159c7846159ac565b614d4a565b613abc565b9050919050565b6159e1816159b6565b82525050565b60006020820190506159fc60008301846159d8565b92915050565b6000615a1d615a18615a1384614c0a565b614d4a565b613abc565b9050919050565b615a2d81615a02565b82525050565b6000604082019050615a486000830185615a24565b615a556020830184615a24565b9392505050565b6000604082019050615a716000830185613ac6565b615a7e6020830184613ac6565b9392505050565b6000604082019050615a9a60008301856141c2565b8181036020830152615aac81846156c2565b90509392505050565b600081519050615ac4816140db565b92915050565b600060208284031215615ae057615adf6139f7565b5b6000615aee84828501615ab5565b91505092915050565b6000615b0282613abc565b9150615b0d83613abc565b9250828202615b1b81613abc565b91508282048414831517615b3257615b3161502d565b5b5092915050565b6000819050919050565b6000615b5e615b59615b5484615b39565b614d4a565b6142f5565b9050919050565b615b6e81615b43565b82525050565b6000604082019050615b896000830185615b65565b615b966020830184613ac6565b9392505050565b6000819050919050565b6000615bc2615bbd615bb884615b9d565b614d4a565b6142f5565b9050919050565b615bd281615ba7565b82525050565b6000604082019050615bed6000830185615bc9565b615bfa6020830184613ac6565b9392505050565b600060a082019050615c1660008301886141c2565b615c2360208301876141c2565b615c3060408301866141c2565b615c3d6060830185613ac6565b615c4a6080830184613c2d565b9695505050505050565b6000608082019050615c6960008301876141c2565b615c766020830186614faf565b615c8360408301856141c2565b615c9060608301846141c2565b9594505050505056fea2646970667358221220bac62787a3ab134515281366bdfa3a1b5f9f82a48c0f2d83217abdfd288a2bed64736f6c634300081c0033",
  "linkReferences": {},
  "deployedLinkReferences": {}
}